{
	"TaskManager.sol": {
		"TaskManager": {
			"abi": [
				{
					"anonymous": false,
					"inputs": [
						{
							"indexed": true,
							"internalType": "uint256",
							"name": "id",
							"type": "uint256"
						},
						{
							"indexed": false,
							"internalType": "string",
							"name": "title",
							"type": "string"
						}
					],
					"name": "TaskCreated",
					"type": "event"
				},
				{
					"inputs": [
						{
							"internalType": "string",
							"name": "_title",
							"type": "string"
						}
					],
					"name": "createTask",
					"outputs": [],
					"stateMutability": "nonpayable",
					"type": "function"
				},
				{
					"inputs": [],
					"name": "readNextToDo",
					"outputs": [
						{
							"components": [
								{
									"internalType": "uint256",
									"name": "id",
									"type": "uint256"
								},
								{
									"internalType": "string",
									"name": "title",
									"type": "string"
								},
								{
									"internalType": "enum TaskManager.TaskStatus",
									"name": "status",
									"type": "uint8"
								}
							],
							"internalType": "struct TaskManager.Task",
							"name": "",
							"type": "tuple"
						}
					],
					"stateMutability": "view",
					"type": "function"
				},
				{
					"inputs": [],
					"name": "taskCounter",
					"outputs": [
						{
							"internalType": "uint256",
							"name": "",
							"type": "uint256"
						}
					],
					"stateMutability": "view",
					"type": "function"
				},
				{
					"inputs": [
						{
							"internalType": "uint256",
							"name": "",
							"type": "uint256"
						}
					],
					"name": "tasks",
					"outputs": [
						{
							"internalType": "uint256",
							"name": "id",
							"type": "uint256"
						},
						{
							"internalType": "string",
							"name": "title",
							"type": "string"
						},
						{
							"internalType": "enum TaskManager.TaskStatus",
							"name": "status",
							"type": "uint8"
						}
					],
					"stateMutability": "view",
					"type": "function"
				},
				{
					"inputs": [
						{
							"internalType": "uint256",
							"name": "_id",
							"type": "uint256"
						},
						{
							"internalType": "enum TaskManager.TaskStatus",
							"name": "_status",
							"type": "uint8"
						}
					],
					"name": "updateTaskStatus",
					"outputs": [],
					"stateMutability": "nonpayable",
					"type": "function"
				}
			],
			"devdoc": {
				"kind": "dev",
				"methods": {},
				"version": 1
			},
			"evm": {
				"assembly": "    /* \"TaskManager.sol\":254:2710  contract TaskManager {... */\n  mstore(0x40, 0x80)\n  callvalue\n  dup1\n  iszero\n  tag_1\n  jumpi\n  0x00\n  dup1\n  revert\ntag_1:\n  pop\n  dataSize(sub_0)\n  dup1\n  dataOffset(sub_0)\n  0x00\n  codecopy\n  0x00\n  return\nstop\n\nsub_0: assembly {\n        /* \"TaskManager.sol\":254:2710  contract TaskManager {... */\n      mstore(0x40, 0x80)\n      callvalue\n      dup1\n      iszero\n      tag_1\n      jumpi\n      0x00\n      dup1\n      revert\n    tag_1:\n      pop\n      jumpi(tag_2, lt(calldatasize, 0x04))\n      shr(0xe0, calldataload(0x00))\n      dup1\n      0x111002aa\n      eq\n      tag_3\n      jumpi\n      dup1\n      0x58671730\n      eq\n      tag_4\n      jumpi\n      dup1\n      0x8d977672\n      eq\n      tag_5\n      jumpi\n      dup1\n      0xab9b6811\n      eq\n      tag_6\n      jumpi\n      dup1\n      0xe9d8be6d\n      eq\n      tag_7\n      jumpi\n    tag_2:\n      0x00\n      dup1\n      revert\n        /* \"TaskManager.sol\":1318:1673  function createTask (string calldata _title) external{... */\n    tag_3:\n      tag_8\n      0x04\n      dup1\n      calldatasize\n      sub\n      dup2\n      add\n      swap1\n      tag_9\n      swap2\n      swap1\n      tag_10\n      jump\t// in\n    tag_9:\n      tag_11\n      jump\t// in\n    tag_8:\n      stop\n        /* \"TaskManager.sol\":1104:1130  uint256 public taskCounter */\n    tag_4:\n      tag_12\n      tag_13\n      jump\t// in\n    tag_12:\n      mload(0x40)\n      tag_14\n      swap2\n      swap1\n      tag_15\n      jump\t// in\n    tag_14:\n      mload(0x40)\n      dup1\n      swap2\n      sub\n      swap1\n      return\n        /* \"TaskManager.sol\":988:1007  Task[] public tasks */\n    tag_5:\n      tag_16\n      0x04\n      dup1\n      calldatasize\n      sub\n      dup2\n      add\n      swap1\n      tag_17\n      swap2\n      swap1\n      tag_18\n      jump\t// in\n    tag_17:\n      tag_19\n      jump\t// in\n    tag_16:\n      mload(0x40)\n      tag_20\n      swap4\n      swap3\n      swap2\n      swap1\n      tag_21\n      jump\t// in\n    tag_20:\n      mload(0x40)\n      dup1\n      swap2\n      sub\n      swap1\n      return\n        /* \"TaskManager.sol\":2511:2684  function updateTaskStatus (uint256 _id, TaskStatus _status) external validTaskIndex(_id)  //Así se linkea el modificador... */\n    tag_6:\n      tag_22\n      0x04\n      dup1\n      calldatasize\n      sub\n      dup2\n      add\n      swap1\n      tag_23\n      swap2\n      swap1\n      tag_24\n      jump\t// in\n    tag_23:\n      tag_25\n      jump\t// in\n    tag_22:\n      stop\n        /* \"TaskManager.sol\":1696:2070  function readNextToDo() external view returns (Task memory){... */\n    tag_7:\n      tag_26\n      tag_27\n      jump\t// in\n    tag_26:\n      mload(0x40)\n      tag_28\n      swap2\n      swap1\n      tag_29\n      jump\t// in\n    tag_28:\n      mload(0x40)\n      dup1\n      swap2\n      sub\n      swap1\n      return\n        /* \"TaskManager.sol\":1318:1673  function createTask (string calldata _title) external{... */\n    tag_11:\n        /* \"TaskManager.sol\":1413:1414  0 */\n      0x00\n        /* \"TaskManager.sol\":1396:1402  _title */\n      dup3\n      dup3\n        /* \"TaskManager.sol\":1390:1410  bytes(_title).length */\n      swap1\n      pop\n        /* \"TaskManager.sol\":1390:1414  bytes(_title).length > 0 */\n      gt\n        /* \"TaskManager.sol\":1382:1430  require(bytes(_title).length > 0, \"empty title\") */\n      tag_31\n      jumpi\n      mload(0x40)\n      0x08c379a000000000000000000000000000000000000000000000000000000000\n      dup2\n      mstore\n      0x04\n      add\n      tag_32\n      swap1\n      tag_33\n      jump\t// in\n    tag_32:\n      mload(0x40)\n      dup1\n      swap2\n      sub\n      swap1\n      revert\n    tag_31:\n        /* \"TaskManager.sol\":1257:1259  10 */\n      0x0a\n        /* \"TaskManager.sol\":1445:1456  taskCounter */\n      sload(0x01)\n        /* \"TaskManager.sol\":1445:1468  taskCounter >= MAX_TASK */\n      lt\n        /* \"TaskManager.sol\":1441:1522  if (taskCounter >= MAX_TASK){... */\n      tag_34\n      jumpi\n        /* \"TaskManager.sol\":1484:1510  revert(\"maximum achieved\") */\n      mload(0x40)\n      0x08c379a000000000000000000000000000000000000000000000000000000000\n      dup2\n      mstore\n      0x04\n      add\n      tag_35\n      swap1\n      tag_36\n      jump\t// in\n    tag_35:\n      mload(0x40)\n      dup1\n      swap2\n      sub\n      swap1\n      revert\n        /* \"TaskManager.sol\":1441:1522  if (taskCounter >= MAX_TASK){... */\n    tag_34:\n        /* \"TaskManager.sol\":1532:1537  tasks */\n      0x00\n        /* \"TaskManager.sol\":1544:1589  Task(taskCounter, _title, TaskStatus.Pending) */\n      mload(0x40)\n      dup1\n      0x60\n      add\n      0x40\n      mstore\n      dup1\n        /* \"TaskManager.sol\":1549:1560  taskCounter */\n      sload(0x01)\n        /* \"TaskManager.sol\":1544:1589  Task(taskCounter, _title, TaskStatus.Pending) */\n      dup2\n      mstore\n      0x20\n      add\n        /* \"TaskManager.sol\":1562:1568  _title */\n      dup5\n      dup5\n        /* \"TaskManager.sol\":1544:1589  Task(taskCounter, _title, TaskStatus.Pending) */\n      dup1\n      dup1\n      0x1f\n      add\n      0x20\n      dup1\n      swap2\n      div\n      mul\n      0x20\n      add\n      mload(0x40)\n      swap1\n      dup2\n      add\n      0x40\n      mstore\n      dup1\n      swap4\n      swap3\n      swap2\n      swap1\n      dup2\n      dup2\n      mstore\n      0x20\n      add\n      dup4\n      dup4\n      dup1\n      dup3\n      dup5\n      calldatacopy\n      0x00\n      dup2\n      dup5\n      add\n      mstore\n      not(0x1f)\n      0x1f\n      dup3\n      add\n      and\n      swap1\n      pop\n      dup1\n      dup4\n      add\n      swap3\n      pop\n      pop\n      pop\n      pop\n      pop\n      pop\n      pop\n      dup2\n      mstore\n      0x20\n      add\n        /* \"TaskManager.sol\":1570:1588  TaskStatus.Pending */\n      0x00\n        /* \"TaskManager.sol\":1544:1589  Task(taskCounter, _title, TaskStatus.Pending) */\n      0x02\n      dup2\n      gt\n      iszero\n      tag_37\n      jumpi\n      tag_38\n      tag_39\n      jump\t// in\n    tag_38:\n    tag_37:\n      dup2\n      mstore\n      pop\n        /* \"TaskManager.sol\":1532:1591  tasks.push( Task(taskCounter, _title, TaskStatus.Pending) ) */\n      swap1\n      dup1\n      0x01\n      dup2\n      sload\n      add\n      dup1\n      dup3\n      sstore\n      dup1\n      swap2\n      pop\n      pop\n      0x01\n      swap1\n      sub\n      swap1\n      0x00\n      mstore\n      keccak256(0x00, 0x20)\n      swap1\n      0x03\n      mul\n      add\n      0x00\n      swap1\n      swap2\n      swap1\n      swap2\n      swap1\n      swap2\n      pop\n      0x00\n      dup3\n      add\n      mload\n      dup2\n      0x00\n      add\n      sstore\n      0x20\n      dup3\n      add\n      mload\n      dup2\n      0x01\n      add\n      swap1\n      dup2\n      tag_41\n      swap2\n      swap1\n      tag_42\n      jump\t// in\n    tag_41:\n      pop\n      0x40\n      dup3\n      add\n      mload\n      dup2\n      0x02\n      add\n      exp(0x0100, 0x00)\n      dup2\n      sload\n      dup2\n      0xff\n      mul\n      not\n      and\n      swap1\n      dup4\n      0x02\n      dup2\n      gt\n      iszero\n      tag_43\n      jumpi\n      tag_44\n      tag_39\n      jump\t// in\n    tag_44:\n    tag_43:\n      mul\n      or\n      swap1\n      sstore\n      pop\n      pop\n      pop\n        /* \"TaskManager.sol\":1619:1630  taskCounter */\n      sload(0x01)\n        /* \"TaskManager.sol\":1607:1639  TaskCreated(taskCounter, _title) */\n      0xa5ed9e6226c584326505694539c95cb0e3238ae09bcda5a65c00bbfdab1c6662\n        /* \"TaskManager.sol\":1632:1638  _title */\n      dup4\n      dup4\n        /* \"TaskManager.sol\":1607:1639  TaskCreated(taskCounter, _title) */\n      mload(0x40)\n      tag_45\n      swap3\n      swap2\n      swap1\n      tag_46\n      jump\t// in\n    tag_45:\n      mload(0x40)\n      dup1\n      swap2\n      sub\n      swap1\n      log2\n        /* \"TaskManager.sol\":1651:1662  taskCounter */\n      0x01\n      0x00\n        /* \"TaskManager.sol\":1651:1665  taskCounter ++ */\n      dup2\n      sload\n      dup1\n      swap3\n      swap2\n      swap1\n      tag_47\n      swap1\n      tag_48\n      jump\t// in\n    tag_47:\n      swap2\n      swap1\n      pop\n      sstore\n      pop\n        /* \"TaskManager.sol\":1318:1673  function createTask (string calldata _title) external{... */\n      pop\n      pop\n      jump\t// out\n        /* \"TaskManager.sol\":1104:1130  uint256 public taskCounter */\n    tag_13:\n      sload(0x01)\n      dup2\n      jump\t// out\n        /* \"TaskManager.sol\":988:1007  Task[] public tasks */\n    tag_19:\n      0x00\n      dup2\n      dup2\n      sload\n      dup2\n      lt\n      tag_49\n      jumpi\n      0x00\n      dup1\n      revert\n    tag_49:\n      swap1\n      0x00\n      mstore\n      keccak256(0x00, 0x20)\n      swap1\n      0x03\n      mul\n      add\n      0x00\n      swap2\n      pop\n      swap1\n      pop\n      dup1\n      0x00\n      add\n      sload\n      swap1\n      dup1\n      0x01\n      add\n      dup1\n      sload\n      tag_51\n      swap1\n      tag_52\n      jump\t// in\n    tag_51:\n      dup1\n      0x1f\n      add\n      0x20\n      dup1\n      swap2\n      div\n      mul\n      0x20\n      add\n      mload(0x40)\n      swap1\n      dup2\n      add\n      0x40\n      mstore\n      dup1\n      swap3\n      swap2\n      swap1\n      dup2\n      dup2\n      mstore\n      0x20\n      add\n      dup3\n      dup1\n      sload\n      tag_53\n      swap1\n      tag_52\n      jump\t// in\n    tag_53:\n      dup1\n      iszero\n      tag_54\n      jumpi\n      dup1\n      0x1f\n      lt\n      tag_55\n      jumpi\n      0x0100\n      dup1\n      dup4\n      sload\n      div\n      mul\n      dup4\n      mstore\n      swap2\n      0x20\n      add\n      swap2\n      jump(tag_54)\n    tag_55:\n      dup3\n      add\n      swap2\n      swap1\n      0x00\n      mstore\n      keccak256(0x00, 0x20)\n      swap1\n    tag_56:\n      dup2\n      sload\n      dup2\n      mstore\n      swap1\n      0x01\n      add\n      swap1\n      0x20\n      add\n      dup1\n      dup4\n      gt\n      tag_56\n      jumpi\n      dup3\n      swap1\n      sub\n      0x1f\n      and\n      dup3\n      add\n      swap2\n    tag_54:\n      pop\n      pop\n      pop\n      pop\n      pop\n      swap1\n      dup1\n      0x02\n      add\n      0x00\n      swap1\n      sload\n      swap1\n      0x0100\n      exp\n      swap1\n      div\n      0xff\n      and\n      swap1\n      pop\n      dup4\n      jump\t// out\n        /* \"TaskManager.sol\":2511:2684  function updateTaskStatus (uint256 _id, TaskStatus _status) external validTaskIndex(_id)  //Así se linkea el modificador... */\n    tag_25:\n        /* \"TaskManager.sol\":2595:2598  _id */\n      dup2\n        /* \"TaskManager.sol\":2426:2431  tasks */\n      0x00\n        /* \"TaskManager.sol\":2426:2438  tasks.length */\n      dup1\n      sload\n      swap1\n      pop\n        /* \"TaskManager.sol\":2417:2423  _index */\n      dup2\n        /* \"TaskManager.sol\":2417:2438  _index < tasks.length */\n      lt\n        /* \"TaskManager.sol\":2408:2460  require (_index < tasks.length, \"id does not exist\") */\n      tag_58\n      jumpi\n      mload(0x40)\n      0x08c379a000000000000000000000000000000000000000000000000000000000\n      dup2\n      mstore\n      0x04\n      add\n      tag_59\n      swap1\n      tag_60\n      jump\t// in\n    tag_59:\n      mload(0x40)\n      dup1\n      swap2\n      sub\n      swap1\n      revert\n    tag_58:\n        /* \"TaskManager.sol\":2669:2676  _status */\n      dup2\n        /* \"TaskManager.sol\":2649:2654  tasks */\n      0x00\n        /* \"TaskManager.sol\":2655:2658  _id */\n      dup5\n        /* \"TaskManager.sol\":2649:2659  tasks[_id] */\n      dup2\n      sload\n      dup2\n      lt\n      tag_62\n      jumpi\n      tag_63\n      tag_64\n      jump\t// in\n    tag_63:\n    tag_62:\n      swap1\n      0x00\n      mstore\n      keccak256(0x00, 0x20)\n      swap1\n      0x03\n      mul\n      add\n        /* \"TaskManager.sol\":2649:2666  tasks[_id].status */\n      0x02\n      add\n      0x00\n        /* \"TaskManager.sol\":2649:2676  tasks[_id].status = _status */\n      0x0100\n      exp\n      dup2\n      sload\n      dup2\n      0xff\n      mul\n      not\n      and\n      swap1\n      dup4\n      0x02\n      dup2\n      gt\n      iszero\n      tag_66\n      jumpi\n      tag_67\n      tag_39\n      jump\t// in\n    tag_67:\n    tag_66:\n      mul\n      or\n      swap1\n      sstore\n      pop\n        /* \"TaskManager.sol\":2511:2684  function updateTaskStatus (uint256 _id, TaskStatus _status) external validTaskIndex(_id)  //Así se linkea el modificador... */\n      pop\n      pop\n      pop\n      jump\t// out\n        /* \"TaskManager.sol\":1696:2070  function readNextToDo() external view returns (Task memory){... */\n    tag_27:\n        /* \"TaskManager.sol\":1743:1754  Task memory */\n      tag_68\n      tag_69\n      jump\t// in\n    tag_68:\n        /* \"TaskManager.sol\":1766:1781  uint256 taskLen */\n      0x00\n        /* \"TaskManager.sol\":1784:1789  tasks */\n      dup1\n        /* \"TaskManager.sol\":1784:1796  tasks.length */\n      dup1\n      sload\n      swap1\n      pop\n        /* \"TaskManager.sol\":1766:1796  uint256 taskLen = tasks.length */\n      swap1\n      pop\n        /* \"TaskManager.sol\":1811:1820  uint256 i */\n      0x00\n        /* \"TaskManager.sol\":1807:1958  for(uint256 i=0; i<taskLen; i++){... */\n    tag_71:\n        /* \"TaskManager.sol\":1826:1833  taskLen */\n      dup2\n        /* \"TaskManager.sol\":1824:1825  i */\n      dup2\n        /* \"TaskManager.sol\":1824:1833  i<taskLen */\n      lt\n        /* \"TaskManager.sol\":1807:1958  for(uint256 i=0; i<taskLen; i++){... */\n      iszero\n      tag_72\n      jumpi\n        /* \"TaskManager.sol\":1877:1895  TaskStatus.Pending */\n      0x00\n        /* \"TaskManager.sol\":1858:1895  tasks[i].status == TaskStatus.Pending */\n      0x02\n      dup2\n      gt\n      iszero\n      tag_74\n      jumpi\n      tag_75\n      tag_39\n      jump\t// in\n    tag_75:\n    tag_74:\n        /* \"TaskManager.sol\":1858:1863  tasks */\n      0x00\n        /* \"TaskManager.sol\":1864:1865  i */\n      dup3\n        /* \"TaskManager.sol\":1858:1866  tasks[i] */\n      dup2\n      sload\n      dup2\n      lt\n      tag_76\n      jumpi\n      tag_77\n      tag_64\n      jump\t// in\n    tag_77:\n    tag_76:\n      swap1\n      0x00\n      mstore\n      keccak256(0x00, 0x20)\n      swap1\n      0x03\n      mul\n      add\n        /* \"TaskManager.sol\":1858:1873  tasks[i].status */\n      0x02\n      add\n      0x00\n      swap1\n      sload\n      swap1\n      0x0100\n      exp\n      swap1\n      div\n      0xff\n      and\n        /* \"TaskManager.sol\":1858:1895  tasks[i].status == TaskStatus.Pending */\n      0x02\n      dup2\n      gt\n      iszero\n      tag_79\n      jumpi\n      tag_80\n      tag_39\n      jump\t// in\n    tag_80:\n    tag_79:\n      sub\n        /* \"TaskManager.sol\":1854:1947  if (tasks[i].status == TaskStatus.Pending) {... */\n      tag_81\n      jumpi\n        /* \"TaskManager.sol\":1923:1928  tasks */\n      0x00\n        /* \"TaskManager.sol\":1929:1930  i */\n      dup2\n        /* \"TaskManager.sol\":1923:1931  tasks[i] */\n      dup2\n      sload\n      dup2\n      lt\n      tag_82\n      jumpi\n      tag_83\n      tag_64\n      jump\t// in\n    tag_83:\n    tag_82:\n      swap1\n      0x00\n      mstore\n      keccak256(0x00, 0x20)\n      swap1\n      0x03\n      mul\n      add\n        /* \"TaskManager.sol\":1916:1931  return tasks[i] */\n      mload(0x40)\n      dup1\n      0x60\n      add\n      0x40\n      mstore\n      swap1\n      dup2\n      0x00\n      dup3\n      add\n      sload\n      dup2\n      mstore\n      0x20\n      add\n      0x01\n      dup3\n      add\n      dup1\n      sload\n      tag_85\n      swap1\n      tag_52\n      jump\t// in\n    tag_85:\n      dup1\n      0x1f\n      add\n      0x20\n      dup1\n      swap2\n      div\n      mul\n      0x20\n      add\n      mload(0x40)\n      swap1\n      dup2\n      add\n      0x40\n      mstore\n      dup1\n      swap3\n      swap2\n      swap1\n      dup2\n      dup2\n      mstore\n      0x20\n      add\n      dup3\n      dup1\n      sload\n      tag_86\n      swap1\n      tag_52\n      jump\t// in\n    tag_86:\n      dup1\n      iszero\n      tag_87\n      jumpi\n      dup1\n      0x1f\n      lt\n      tag_88\n      jumpi\n      0x0100\n      dup1\n      dup4\n      sload\n      div\n      mul\n      dup4\n      mstore\n      swap2\n      0x20\n      add\n      swap2\n      jump(tag_87)\n    tag_88:\n      dup3\n      add\n      swap2\n      swap1\n      0x00\n      mstore\n      keccak256(0x00, 0x20)\n      swap1\n    tag_89:\n      dup2\n      sload\n      dup2\n      mstore\n      swap1\n      0x01\n      add\n      swap1\n      0x20\n      add\n      dup1\n      dup4\n      gt\n      tag_89\n      jumpi\n      dup3\n      swap1\n      sub\n      0x1f\n      and\n      dup3\n      add\n      swap2\n    tag_87:\n      pop\n      pop\n      pop\n      pop\n      pop\n      dup2\n      mstore\n      0x20\n      add\n      0x02\n      dup3\n      add\n      0x00\n      swap1\n      sload\n      swap1\n      0x0100\n      exp\n      swap1\n      div\n      0xff\n      and\n      0x02\n      dup2\n      gt\n      iszero\n      tag_90\n      jumpi\n      tag_91\n      tag_39\n      jump\t// in\n    tag_91:\n    tag_90:\n      0x02\n      dup2\n      gt\n      iszero\n      tag_92\n      jumpi\n      tag_93\n      tag_39\n      jump\t// in\n    tag_93:\n    tag_92:\n      dup2\n      mstore\n      pop\n      pop\n      swap3\n      pop\n      pop\n      pop\n      jump(tag_70)\n        /* \"TaskManager.sol\":1854:1947  if (tasks[i].status == TaskStatus.Pending) {... */\n    tag_81:\n        /* \"TaskManager.sol\":1835:1838  i++ */\n      dup1\n      dup1\n      tag_94\n      swap1\n      tag_48\n      jump\t// in\n    tag_94:\n      swap2\n      pop\n      pop\n        /* \"TaskManager.sol\":1807:1958  for(uint256 i=0; i<taskLen; i++){... */\n      jump(tag_71)\n    tag_72:\n      pop\n        /* \"TaskManager.sol\":1975:1980  tasks */\n      0x00\n        /* \"TaskManager.sol\":1981:1990  taskLen-- */\n      dup2\n      dup1\n      tag_95\n      swap1\n      tag_96\n      jump\t// in\n    tag_95:\n      swap3\n      pop\n        /* \"TaskManager.sol\":1975:1991  tasks[taskLen--] */\n      dup2\n      sload\n      dup2\n      lt\n      tag_97\n      jumpi\n      tag_98\n      tag_64\n      jump\t// in\n    tag_98:\n    tag_97:\n      swap1\n      0x00\n      mstore\n      keccak256(0x00, 0x20)\n      swap1\n      0x03\n      mul\n      add\n        /* \"TaskManager.sol\":1968:1991  return tasks[taskLen--] */\n      mload(0x40)\n      dup1\n      0x60\n      add\n      0x40\n      mstore\n      swap1\n      dup2\n      0x00\n      dup3\n      add\n      sload\n      dup2\n      mstore\n      0x20\n      add\n      0x01\n      dup3\n      add\n      dup1\n      sload\n      tag_100\n      swap1\n      tag_52\n      jump\t// in\n    tag_100:\n      dup1\n      0x1f\n      add\n      0x20\n      dup1\n      swap2\n      div\n      mul\n      0x20\n      add\n      mload(0x40)\n      swap1\n      dup2\n      add\n      0x40\n      mstore\n      dup1\n      swap3\n      swap2\n      swap1\n      dup2\n      dup2\n      mstore\n      0x20\n      add\n      dup3\n      dup1\n      sload\n      tag_101\n      swap1\n      tag_52\n      jump\t// in\n    tag_101:\n      dup1\n      iszero\n      tag_102\n      jumpi\n      dup1\n      0x1f\n      lt\n      tag_103\n      jumpi\n      0x0100\n      dup1\n      dup4\n      sload\n      div\n      mul\n      dup4\n      mstore\n      swap2\n      0x20\n      add\n      swap2\n      jump(tag_102)\n    tag_103:\n      dup3\n      add\n      swap2\n      swap1\n      0x00\n      mstore\n      keccak256(0x00, 0x20)\n      swap1\n    tag_104:\n      dup2\n      sload\n      dup2\n      mstore\n      swap1\n      0x01\n      add\n      swap1\n      0x20\n      add\n      dup1\n      dup4\n      gt\n      tag_104\n      jumpi\n      dup3\n      swap1\n      sub\n      0x1f\n      and\n      dup3\n      add\n      swap2\n    tag_102:\n      pop\n      pop\n      pop\n      pop\n      pop\n      dup2\n      mstore\n      0x20\n      add\n      0x02\n      dup3\n      add\n      0x00\n      swap1\n      sload\n      swap1\n      0x0100\n      exp\n      swap1\n      div\n      0xff\n      and\n      0x02\n      dup2\n      gt\n      iszero\n      tag_105\n      jumpi\n      tag_106\n      tag_39\n      jump\t// in\n    tag_106:\n    tag_105:\n      0x02\n      dup2\n      gt\n      iszero\n      tag_107\n      jumpi\n      tag_108\n      tag_39\n      jump\t// in\n    tag_108:\n    tag_107:\n      dup2\n      mstore\n      pop\n      pop\n      swap2\n      pop\n      pop\n        /* \"TaskManager.sol\":1696:2070  function readNextToDo() external view returns (Task memory){... */\n    tag_70:\n      swap1\n      jump\t// out\n    tag_69:\n      mload(0x40)\n      dup1\n      0x60\n      add\n      0x40\n      mstore\n      dup1\n      0x00\n      dup2\n      mstore\n      0x20\n      add\n      0x60\n      dup2\n      mstore\n      0x20\n      add\n      0x00\n      0x02\n      dup2\n      gt\n      iszero\n      tag_109\n      jumpi\n      tag_110\n      tag_39\n      jump\t// in\n    tag_110:\n    tag_109:\n      dup2\n      mstore\n      pop\n      swap1\n      jump\t// out\n        /* \"#utility.yul\":88:205   */\n    tag_112:\n        /* \"#utility.yul\":197:198   */\n      0x00\n        /* \"#utility.yul\":194:195   */\n      dup1\n        /* \"#utility.yul\":187:199   */\n      revert\n        /* \"#utility.yul\":211:328   */\n    tag_113:\n        /* \"#utility.yul\":320:321   */\n      0x00\n        /* \"#utility.yul\":317:318   */\n      dup1\n        /* \"#utility.yul\":310:322   */\n      revert\n        /* \"#utility.yul\":334:451   */\n    tag_114:\n        /* \"#utility.yul\":443:444   */\n      0x00\n        /* \"#utility.yul\":440:441   */\n      dup1\n        /* \"#utility.yul\":433:445   */\n      revert\n        /* \"#utility.yul\":457:574   */\n    tag_115:\n        /* \"#utility.yul\":566:567   */\n      0x00\n        /* \"#utility.yul\":563:564   */\n      dup1\n        /* \"#utility.yul\":556:568   */\n      revert\n        /* \"#utility.yul\":580:697   */\n    tag_116:\n        /* \"#utility.yul\":689:690   */\n      0x00\n        /* \"#utility.yul\":686:687   */\n      dup1\n        /* \"#utility.yul\":679:691   */\n      revert\n        /* \"#utility.yul\":717:1270   */\n    tag_117:\n        /* \"#utility.yul\":775:783   */\n      0x00\n        /* \"#utility.yul\":785:791   */\n      dup1\n        /* \"#utility.yul\":835:838   */\n      dup4\n        /* \"#utility.yul\":828:832   */\n      0x1f\n        /* \"#utility.yul\":820:826   */\n      dup5\n        /* \"#utility.yul\":816:833   */\n      add\n        /* \"#utility.yul\":812:839   */\n      slt\n        /* \"#utility.yul\":802:924   */\n      tag_172\n      jumpi\n        /* \"#utility.yul\":843:922   */\n      tag_173\n      tag_114\n      jump\t// in\n    tag_173:\n        /* \"#utility.yul\":802:924   */\n    tag_172:\n        /* \"#utility.yul\":956:962   */\n      dup3\n        /* \"#utility.yul\":943:963   */\n      calldataload\n        /* \"#utility.yul\":933:963   */\n      swap1\n      pop\n        /* \"#utility.yul\":986:1004   */\n      0xffffffffffffffff\n        /* \"#utility.yul\":978:984   */\n      dup2\n        /* \"#utility.yul\":975:1005   */\n      gt\n        /* \"#utility.yul\":972:1089   */\n      iszero\n      tag_174\n      jumpi\n        /* \"#utility.yul\":1008:1087   */\n      tag_175\n      tag_115\n      jump\t// in\n    tag_175:\n        /* \"#utility.yul\":972:1089   */\n    tag_174:\n        /* \"#utility.yul\":1122:1126   */\n      0x20\n        /* \"#utility.yul\":1114:1120   */\n      dup4\n        /* \"#utility.yul\":1110:1127   */\n      add\n        /* \"#utility.yul\":1098:1127   */\n      swap2\n      pop\n        /* \"#utility.yul\":1176:1179   */\n      dup4\n        /* \"#utility.yul\":1168:1172   */\n      0x01\n        /* \"#utility.yul\":1160:1166   */\n      dup3\n        /* \"#utility.yul\":1156:1173   */\n      mul\n        /* \"#utility.yul\":1146:1154   */\n      dup4\n        /* \"#utility.yul\":1142:1174   */\n      add\n        /* \"#utility.yul\":1139:1180   */\n      gt\n        /* \"#utility.yul\":1136:1264   */\n      iszero\n      tag_176\n      jumpi\n        /* \"#utility.yul\":1183:1262   */\n      tag_177\n      tag_116\n      jump\t// in\n    tag_177:\n        /* \"#utility.yul\":1136:1264   */\n    tag_176:\n        /* \"#utility.yul\":717:1270   */\n      swap3\n      pop\n      swap3\n      swap1\n      pop\n      jump\t// out\n        /* \"#utility.yul\":1276:1805   */\n    tag_10:\n        /* \"#utility.yul\":1347:1353   */\n      0x00\n        /* \"#utility.yul\":1355:1361   */\n      dup1\n        /* \"#utility.yul\":1404:1406   */\n      0x20\n        /* \"#utility.yul\":1392:1401   */\n      dup4\n        /* \"#utility.yul\":1383:1390   */\n      dup6\n        /* \"#utility.yul\":1379:1402   */\n      sub\n        /* \"#utility.yul\":1375:1407   */\n      slt\n        /* \"#utility.yul\":1372:1491   */\n      iszero\n      tag_179\n      jumpi\n        /* \"#utility.yul\":1410:1489   */\n      tag_180\n      tag_112\n      jump\t// in\n    tag_180:\n        /* \"#utility.yul\":1372:1491   */\n    tag_179:\n        /* \"#utility.yul\":1558:1559   */\n      0x00\n        /* \"#utility.yul\":1547:1556   */\n      dup4\n        /* \"#utility.yul\":1543:1560   */\n      add\n        /* \"#utility.yul\":1530:1561   */\n      calldataload\n        /* \"#utility.yul\":1588:1606   */\n      0xffffffffffffffff\n        /* \"#utility.yul\":1580:1586   */\n      dup2\n        /* \"#utility.yul\":1577:1607   */\n      gt\n        /* \"#utility.yul\":1574:1691   */\n      iszero\n      tag_181\n      jumpi\n        /* \"#utility.yul\":1610:1689   */\n      tag_182\n      tag_113\n      jump\t// in\n    tag_182:\n        /* \"#utility.yul\":1574:1691   */\n    tag_181:\n        /* \"#utility.yul\":1723:1788   */\n      tag_183\n        /* \"#utility.yul\":1780:1787   */\n      dup6\n        /* \"#utility.yul\":1771:1777   */\n      dup3\n        /* \"#utility.yul\":1760:1769   */\n      dup7\n        /* \"#utility.yul\":1756:1778   */\n      add\n        /* \"#utility.yul\":1723:1788   */\n      tag_117\n      jump\t// in\n    tag_183:\n        /* \"#utility.yul\":1705:1788   */\n      swap3\n      pop\n      swap3\n      pop\n        /* \"#utility.yul\":1501:1798   */\n      pop\n        /* \"#utility.yul\":1276:1805   */\n      swap3\n      pop\n      swap3\n      swap1\n      pop\n      jump\t// out\n        /* \"#utility.yul\":1811:1888   */\n    tag_118:\n        /* \"#utility.yul\":1848:1855   */\n      0x00\n        /* \"#utility.yul\":1877:1882   */\n      dup2\n        /* \"#utility.yul\":1866:1882   */\n      swap1\n      pop\n        /* \"#utility.yul\":1811:1888   */\n      swap2\n      swap1\n      pop\n      jump\t// out\n        /* \"#utility.yul\":1894:2012   */\n    tag_119:\n        /* \"#utility.yul\":1981:2005   */\n      tag_186\n        /* \"#utility.yul\":1999:2004   */\n      dup2\n        /* \"#utility.yul\":1981:2005   */\n      tag_118\n      jump\t// in\n    tag_186:\n        /* \"#utility.yul\":1976:1979   */\n      dup3\n        /* \"#utility.yul\":1969:2006   */\n      mstore\n        /* \"#utility.yul\":1894:2012   */\n      pop\n      pop\n      jump\t// out\n        /* \"#utility.yul\":2018:2240   */\n    tag_15:\n        /* \"#utility.yul\":2111:2115   */\n      0x00\n        /* \"#utility.yul\":2149:2151   */\n      0x20\n        /* \"#utility.yul\":2138:2147   */\n      dup3\n        /* \"#utility.yul\":2134:2152   */\n      add\n        /* \"#utility.yul\":2126:2152   */\n      swap1\n      pop\n        /* \"#utility.yul\":2162:2233   */\n      tag_188\n        /* \"#utility.yul\":2230:2231   */\n      0x00\n        /* \"#utility.yul\":2219:2228   */\n      dup4\n        /* \"#utility.yul\":2215:2232   */\n      add\n        /* \"#utility.yul\":2206:2212   */\n      dup5\n        /* \"#utility.yul\":2162:2233   */\n      tag_119\n      jump\t// in\n    tag_188:\n        /* \"#utility.yul\":2018:2240   */\n      swap3\n      swap2\n      pop\n      pop\n      jump\t// out\n        /* \"#utility.yul\":2246:2368   */\n    tag_120:\n        /* \"#utility.yul\":2319:2343   */\n      tag_190\n        /* \"#utility.yul\":2337:2342   */\n      dup2\n        /* \"#utility.yul\":2319:2343   */\n      tag_118\n      jump\t// in\n    tag_190:\n        /* \"#utility.yul\":2312:2317   */\n      dup2\n        /* \"#utility.yul\":2309:2344   */\n      eq\n        /* \"#utility.yul\":2299:2362   */\n      tag_191\n      jumpi\n        /* \"#utility.yul\":2358:2359   */\n      0x00\n        /* \"#utility.yul\":2355:2356   */\n      dup1\n        /* \"#utility.yul\":2348:2360   */\n      revert\n        /* \"#utility.yul\":2299:2362   */\n    tag_191:\n        /* \"#utility.yul\":2246:2368   */\n      pop\n      jump\t// out\n        /* \"#utility.yul\":2374:2513   */\n    tag_121:\n        /* \"#utility.yul\":2420:2425   */\n      0x00\n        /* \"#utility.yul\":2458:2464   */\n      dup2\n        /* \"#utility.yul\":2445:2465   */\n      calldataload\n        /* \"#utility.yul\":2436:2465   */\n      swap1\n      pop\n        /* \"#utility.yul\":2474:2507   */\n      tag_193\n        /* \"#utility.yul\":2501:2506   */\n      dup2\n        /* \"#utility.yul\":2474:2507   */\n      tag_120\n      jump\t// in\n    tag_193:\n        /* \"#utility.yul\":2374:2513   */\n      swap3\n      swap2\n      pop\n      pop\n      jump\t// out\n        /* \"#utility.yul\":2519:2848   */\n    tag_18:\n        /* \"#utility.yul\":2578:2584   */\n      0x00\n        /* \"#utility.yul\":2627:2629   */\n      0x20\n        /* \"#utility.yul\":2615:2624   */\n      dup3\n        /* \"#utility.yul\":2606:2613   */\n      dup5\n        /* \"#utility.yul\":2602:2625   */\n      sub\n        /* \"#utility.yul\":2598:2630   */\n      slt\n        /* \"#utility.yul\":2595:2714   */\n      iszero\n      tag_195\n      jumpi\n        /* \"#utility.yul\":2633:2712   */\n      tag_196\n      tag_112\n      jump\t// in\n    tag_196:\n        /* \"#utility.yul\":2595:2714   */\n    tag_195:\n        /* \"#utility.yul\":2753:2754   */\n      0x00\n        /* \"#utility.yul\":2778:2831   */\n      tag_197\n        /* \"#utility.yul\":2823:2830   */\n      dup5\n        /* \"#utility.yul\":2814:2820   */\n      dup3\n        /* \"#utility.yul\":2803:2812   */\n      dup6\n        /* \"#utility.yul\":2799:2821   */\n      add\n        /* \"#utility.yul\":2778:2831   */\n      tag_121\n      jump\t// in\n    tag_197:\n        /* \"#utility.yul\":2768:2831   */\n      swap2\n      pop\n        /* \"#utility.yul\":2724:2841   */\n      pop\n        /* \"#utility.yul\":2519:2848   */\n      swap3\n      swap2\n      pop\n      pop\n      jump\t// out\n        /* \"#utility.yul\":2854:2953   */\n    tag_122:\n        /* \"#utility.yul\":2906:2912   */\n      0x00\n        /* \"#utility.yul\":2940:2945   */\n      dup2\n        /* \"#utility.yul\":2934:2946   */\n      mload\n        /* \"#utility.yul\":2924:2946   */\n      swap1\n      pop\n        /* \"#utility.yul\":2854:2953   */\n      swap2\n      swap1\n      pop\n      jump\t// out\n        /* \"#utility.yul\":2959:3128   */\n    tag_123:\n        /* \"#utility.yul\":3043:3054   */\n      0x00\n        /* \"#utility.yul\":3077:3083   */\n      dup3\n        /* \"#utility.yul\":3072:3075   */\n      dup3\n        /* \"#utility.yul\":3065:3084   */\n      mstore\n        /* \"#utility.yul\":3117:3121   */\n      0x20\n        /* \"#utility.yul\":3112:3115   */\n      dup3\n        /* \"#utility.yul\":3108:3122   */\n      add\n        /* \"#utility.yul\":3093:3122   */\n      swap1\n      pop\n        /* \"#utility.yul\":2959:3128   */\n      swap3\n      swap2\n      pop\n      pop\n      jump\t// out\n        /* \"#utility.yul\":3134:3380   */\n    tag_124:\n        /* \"#utility.yul\":3215:3216   */\n      0x00\n        /* \"#utility.yul\":3225:3338   */\n    tag_201:\n        /* \"#utility.yul\":3239:3245   */\n      dup4\n        /* \"#utility.yul\":3236:3237   */\n      dup2\n        /* \"#utility.yul\":3233:3246   */\n      lt\n        /* \"#utility.yul\":3225:3338   */\n      iszero\n      tag_203\n      jumpi\n        /* \"#utility.yul\":3324:3325   */\n      dup1\n        /* \"#utility.yul\":3319:3322   */\n      dup3\n        /* \"#utility.yul\":3315:3326   */\n      add\n        /* \"#utility.yul\":3309:3327   */\n      mload\n        /* \"#utility.yul\":3305:3306   */\n      dup2\n        /* \"#utility.yul\":3300:3303   */\n      dup5\n        /* \"#utility.yul\":3296:3307   */\n      add\n        /* \"#utility.yul\":3289:3328   */\n      mstore\n        /* \"#utility.yul\":3261:3263   */\n      0x20\n        /* \"#utility.yul\":3258:3259   */\n      dup2\n        /* \"#utility.yul\":3254:3264   */\n      add\n        /* \"#utility.yul\":3249:3264   */\n      swap1\n      pop\n        /* \"#utility.yul\":3225:3338   */\n      jump(tag_201)\n    tag_203:\n        /* \"#utility.yul\":3372:3373   */\n      0x00\n        /* \"#utility.yul\":3363:3369   */\n      dup5\n        /* \"#utility.yul\":3358:3361   */\n      dup5\n        /* \"#utility.yul\":3354:3370   */\n      add\n        /* \"#utility.yul\":3347:3374   */\n      mstore\n        /* \"#utility.yul\":3196:3380   */\n      pop\n        /* \"#utility.yul\":3134:3380   */\n      pop\n      pop\n      pop\n      jump\t// out\n        /* \"#utility.yul\":3386:3488   */\n    tag_125:\n        /* \"#utility.yul\":3427:3433   */\n      0x00\n        /* \"#utility.yul\":3478:3480   */\n      0x1f\n        /* \"#utility.yul\":3474:3481   */\n      not\n        /* \"#utility.yul\":3469:3471   */\n      0x1f\n        /* \"#utility.yul\":3462:3467   */\n      dup4\n        /* \"#utility.yul\":3458:3472   */\n      add\n        /* \"#utility.yul\":3454:3482   */\n      and\n        /* \"#utility.yul\":3444:3482   */\n      swap1\n      pop\n        /* \"#utility.yul\":3386:3488   */\n      swap2\n      swap1\n      pop\n      jump\t// out\n        /* \"#utility.yul\":3494:3871   */\n    tag_126:\n        /* \"#utility.yul\":3582:3585   */\n      0x00\n        /* \"#utility.yul\":3610:3649   */\n      tag_206\n        /* \"#utility.yul\":3643:3648   */\n      dup3\n        /* \"#utility.yul\":3610:3649   */\n      tag_122\n      jump\t// in\n    tag_206:\n        /* \"#utility.yul\":3665:3736   */\n      tag_207\n        /* \"#utility.yul\":3729:3735   */\n      dup2\n        /* \"#utility.yul\":3724:3727   */\n      dup6\n        /* \"#utility.yul\":3665:3736   */\n      tag_123\n      jump\t// in\n    tag_207:\n        /* \"#utility.yul\":3658:3736   */\n      swap4\n      pop\n        /* \"#utility.yul\":3745:3810   */\n      tag_208\n        /* \"#utility.yul\":3803:3809   */\n      dup2\n        /* \"#utility.yul\":3798:3801   */\n      dup6\n        /* \"#utility.yul\":3791:3795   */\n      0x20\n        /* \"#utility.yul\":3784:3789   */\n      dup7\n        /* \"#utility.yul\":3780:3796   */\n      add\n        /* \"#utility.yul\":3745:3810   */\n      tag_124\n      jump\t// in\n    tag_208:\n        /* \"#utility.yul\":3835:3864   */\n      tag_209\n        /* \"#utility.yul\":3857:3863   */\n      dup2\n        /* \"#utility.yul\":3835:3864   */\n      tag_125\n      jump\t// in\n    tag_209:\n        /* \"#utility.yul\":3830:3833   */\n      dup5\n        /* \"#utility.yul\":3826:3865   */\n      add\n        /* \"#utility.yul\":3819:3865   */\n      swap2\n      pop\n        /* \"#utility.yul\":3586:3871   */\n      pop\n        /* \"#utility.yul\":3494:3871   */\n      swap3\n      swap2\n      pop\n      pop\n      jump\t// out\n        /* \"#utility.yul\":3877:4057   */\n    tag_39:\n        /* \"#utility.yul\":3925:4002   */\n      0x4e487b7100000000000000000000000000000000000000000000000000000000\n        /* \"#utility.yul\":3922:3923   */\n      0x00\n        /* \"#utility.yul\":3915:4003   */\n      mstore\n        /* \"#utility.yul\":4022:4026   */\n      0x21\n        /* \"#utility.yul\":4019:4020   */\n      0x04\n        /* \"#utility.yul\":4012:4027   */\n      mstore\n        /* \"#utility.yul\":4046:4050   */\n      0x24\n        /* \"#utility.yul\":4043:4044   */\n      0x00\n        /* \"#utility.yul\":4036:4051   */\n      revert\n        /* \"#utility.yul\":4063:4180   */\n    tag_127:\n        /* \"#utility.yul\":4148:4149   */\n      0x03\n        /* \"#utility.yul\":4141:4146   */\n      dup2\n        /* \"#utility.yul\":4138:4150   */\n      lt\n        /* \"#utility.yul\":4128:4174   */\n      tag_212\n      jumpi\n        /* \"#utility.yul\":4154:4172   */\n      tag_213\n      tag_39\n      jump\t// in\n    tag_213:\n        /* \"#utility.yul\":4128:4174   */\n    tag_212:\n        /* \"#utility.yul\":4063:4180   */\n      pop\n      jump\t// out\n        /* \"#utility.yul\":4186:4321   */\n    tag_128:\n        /* \"#utility.yul\":4235:4242   */\n      0x00\n        /* \"#utility.yul\":4264:4269   */\n      dup2\n        /* \"#utility.yul\":4253:4269   */\n      swap1\n      pop\n        /* \"#utility.yul\":4270:4315   */\n      tag_215\n        /* \"#utility.yul\":4309:4314   */\n      dup3\n        /* \"#utility.yul\":4270:4315   */\n      tag_127\n      jump\t// in\n    tag_215:\n        /* \"#utility.yul\":4186:4321   */\n      swap2\n      swap1\n      pop\n      jump\t// out\n        /* \"#utility.yul\":4327:4462   */\n    tag_129:\n        /* \"#utility.yul\":4387:4396   */\n      0x00\n        /* \"#utility.yul\":4420:4456   */\n      tag_217\n        /* \"#utility.yul\":4450:4455   */\n      dup3\n        /* \"#utility.yul\":4420:4456   */\n      tag_128\n      jump\t// in\n    tag_217:\n        /* \"#utility.yul\":4407:4456   */\n      swap1\n      pop\n        /* \"#utility.yul\":4327:4462   */\n      swap2\n      swap1\n      pop\n      jump\t// out\n        /* \"#utility.yul\":4468:4619   */\n    tag_130:\n        /* \"#utility.yul\":4565:4612   */\n      tag_219\n        /* \"#utility.yul\":4606:4611   */\n      dup2\n        /* \"#utility.yul\":4565:4612   */\n      tag_129\n      jump\t// in\n    tag_219:\n        /* \"#utility.yul\":4560:4563   */\n      dup3\n        /* \"#utility.yul\":4553:4613   */\n      mstore\n        /* \"#utility.yul\":4468:4619   */\n      pop\n      pop\n      jump\t// out\n        /* \"#utility.yul\":4625:5178   */\n    tag_21:\n        /* \"#utility.yul\":4804:4808   */\n      0x00\n        /* \"#utility.yul\":4842:4844   */\n      0x60\n        /* \"#utility.yul\":4831:4840   */\n      dup3\n        /* \"#utility.yul\":4827:4845   */\n      add\n        /* \"#utility.yul\":4819:4845   */\n      swap1\n      pop\n        /* \"#utility.yul\":4855:4926   */\n      tag_221\n        /* \"#utility.yul\":4923:4924   */\n      0x00\n        /* \"#utility.yul\":4912:4921   */\n      dup4\n        /* \"#utility.yul\":4908:4925   */\n      add\n        /* \"#utility.yul\":4899:4905   */\n      dup7\n        /* \"#utility.yul\":4855:4926   */\n      tag_119\n      jump\t// in\n    tag_221:\n        /* \"#utility.yul\":4973:4982   */\n      dup2\n        /* \"#utility.yul\":4967:4971   */\n      dup2\n        /* \"#utility.yul\":4963:4983   */\n      sub\n        /* \"#utility.yul\":4958:4960   */\n      0x20\n        /* \"#utility.yul\":4947:4956   */\n      dup4\n        /* \"#utility.yul\":4943:4961   */\n      add\n        /* \"#utility.yul\":4936:4984   */\n      mstore\n        /* \"#utility.yul\":5001:5079   */\n      tag_222\n        /* \"#utility.yul\":5074:5078   */\n      dup2\n        /* \"#utility.yul\":5065:5071   */\n      dup6\n        /* \"#utility.yul\":5001:5079   */\n      tag_126\n      jump\t// in\n    tag_222:\n        /* \"#utility.yul\":4993:5079   */\n      swap1\n      pop\n        /* \"#utility.yul\":5089:5171   */\n      tag_223\n        /* \"#utility.yul\":5167:5169   */\n      0x40\n        /* \"#utility.yul\":5156:5165   */\n      dup4\n        /* \"#utility.yul\":5152:5170   */\n      add\n        /* \"#utility.yul\":5143:5149   */\n      dup5\n        /* \"#utility.yul\":5089:5171   */\n      tag_130\n      jump\t// in\n    tag_223:\n        /* \"#utility.yul\":4625:5178   */\n      swap5\n      swap4\n      pop\n      pop\n      pop\n      pop\n      jump\t// out\n        /* \"#utility.yul\":5184:5295   */\n    tag_131:\n        /* \"#utility.yul\":5269:5270   */\n      0x03\n        /* \"#utility.yul\":5262:5267   */\n      dup2\n        /* \"#utility.yul\":5259:5271   */\n      lt\n        /* \"#utility.yul\":5249:5289   */\n      tag_225\n      jumpi\n        /* \"#utility.yul\":5285:5286   */\n      0x00\n        /* \"#utility.yul\":5282:5283   */\n      dup1\n        /* \"#utility.yul\":5275:5287   */\n      revert\n        /* \"#utility.yul\":5249:5289   */\n    tag_225:\n        /* \"#utility.yul\":5184:5295   */\n      pop\n      jump\t// out\n        /* \"#utility.yul\":5301:5464   */\n    tag_132:\n        /* \"#utility.yul\":5359:5364   */\n      0x00\n        /* \"#utility.yul\":5397:5403   */\n      dup2\n        /* \"#utility.yul\":5384:5404   */\n      calldataload\n        /* \"#utility.yul\":5375:5404   */\n      swap1\n      pop\n        /* \"#utility.yul\":5413:5458   */\n      tag_227\n        /* \"#utility.yul\":5452:5457   */\n      dup2\n        /* \"#utility.yul\":5413:5458   */\n      tag_131\n      jump\t// in\n    tag_227:\n        /* \"#utility.yul\":5301:5464   */\n      swap3\n      swap2\n      pop\n      pop\n      jump\t// out\n        /* \"#utility.yul\":5470:5968   */\n    tag_24:\n        /* \"#utility.yul\":5550:5556   */\n      0x00\n        /* \"#utility.yul\":5558:5564   */\n      dup1\n        /* \"#utility.yul\":5607:5609   */\n      0x40\n        /* \"#utility.yul\":5595:5604   */\n      dup4\n        /* \"#utility.yul\":5586:5593   */\n      dup6\n        /* \"#utility.yul\":5582:5605   */\n      sub\n        /* \"#utility.yul\":5578:5610   */\n      slt\n        /* \"#utility.yul\":5575:5694   */\n      iszero\n      tag_229\n      jumpi\n        /* \"#utility.yul\":5613:5692   */\n      tag_230\n      tag_112\n      jump\t// in\n    tag_230:\n        /* \"#utility.yul\":5575:5694   */\n    tag_229:\n        /* \"#utility.yul\":5733:5734   */\n      0x00\n        /* \"#utility.yul\":5758:5811   */\n      tag_231\n        /* \"#utility.yul\":5803:5810   */\n      dup6\n        /* \"#utility.yul\":5794:5800   */\n      dup3\n        /* \"#utility.yul\":5783:5792   */\n      dup7\n        /* \"#utility.yul\":5779:5801   */\n      add\n        /* \"#utility.yul\":5758:5811   */\n      tag_121\n      jump\t// in\n    tag_231:\n        /* \"#utility.yul\":5748:5811   */\n      swap3\n      pop\n        /* \"#utility.yul\":5704:5821   */\n      pop\n        /* \"#utility.yul\":5860:5862   */\n      0x20\n        /* \"#utility.yul\":5886:5951   */\n      tag_232\n        /* \"#utility.yul\":5943:5950   */\n      dup6\n        /* \"#utility.yul\":5934:5940   */\n      dup3\n        /* \"#utility.yul\":5923:5932   */\n      dup7\n        /* \"#utility.yul\":5919:5941   */\n      add\n        /* \"#utility.yul\":5886:5951   */\n      tag_132\n      jump\t// in\n    tag_232:\n        /* \"#utility.yul\":5876:5951   */\n      swap2\n      pop\n        /* \"#utility.yul\":5831:5961   */\n      pop\n        /* \"#utility.yul\":5470:5968   */\n      swap3\n      pop\n      swap3\n      swap1\n      pop\n      jump\t// out\n        /* \"#utility.yul\":5974:6082   */\n    tag_133:\n        /* \"#utility.yul\":6051:6075   */\n      tag_234\n        /* \"#utility.yul\":6069:6074   */\n      dup2\n        /* \"#utility.yul\":6051:6075   */\n      tag_118\n      jump\t// in\n    tag_234:\n        /* \"#utility.yul\":6046:6049   */\n      dup3\n        /* \"#utility.yul\":6039:6076   */\n      mstore\n        /* \"#utility.yul\":5974:6082   */\n      pop\n      pop\n      jump\t// out\n        /* \"#utility.yul\":6088:6247   */\n    tag_134:\n        /* \"#utility.yul\":6162:6173   */\n      0x00\n        /* \"#utility.yul\":6196:6202   */\n      dup3\n        /* \"#utility.yul\":6191:6194   */\n      dup3\n        /* \"#utility.yul\":6184:6203   */\n      mstore\n        /* \"#utility.yul\":6236:6240   */\n      0x20\n        /* \"#utility.yul\":6231:6234   */\n      dup3\n        /* \"#utility.yul\":6227:6241   */\n      add\n        /* \"#utility.yul\":6212:6241   */\n      swap1\n      pop\n        /* \"#utility.yul\":6088:6247   */\n      swap3\n      swap2\n      pop\n      pop\n      jump\t// out\n        /* \"#utility.yul\":6253:6610   */\n    tag_135:\n        /* \"#utility.yul\":6331:6334   */\n      0x00\n        /* \"#utility.yul\":6359:6398   */\n      tag_237\n        /* \"#utility.yul\":6392:6397   */\n      dup3\n        /* \"#utility.yul\":6359:6398   */\n      tag_122\n      jump\t// in\n    tag_237:\n        /* \"#utility.yul\":6414:6475   */\n      tag_238\n        /* \"#utility.yul\":6468:6474   */\n      dup2\n        /* \"#utility.yul\":6463:6466   */\n      dup6\n        /* \"#utility.yul\":6414:6475   */\n      tag_134\n      jump\t// in\n    tag_238:\n        /* \"#utility.yul\":6407:6475   */\n      swap4\n      pop\n        /* \"#utility.yul\":6484:6549   */\n      tag_239\n        /* \"#utility.yul\":6542:6548   */\n      dup2\n        /* \"#utility.yul\":6537:6540   */\n      dup6\n        /* \"#utility.yul\":6530:6534   */\n      0x20\n        /* \"#utility.yul\":6523:6528   */\n      dup7\n        /* \"#utility.yul\":6519:6535   */\n      add\n        /* \"#utility.yul\":6484:6549   */\n      tag_124\n      jump\t// in\n    tag_239:\n        /* \"#utility.yul\":6574:6603   */\n      tag_240\n        /* \"#utility.yul\":6596:6602   */\n      dup2\n        /* \"#utility.yul\":6574:6603   */\n      tag_125\n      jump\t// in\n    tag_240:\n        /* \"#utility.yul\":6569:6572   */\n      dup5\n        /* \"#utility.yul\":6565:6604   */\n      add\n        /* \"#utility.yul\":6558:6604   */\n      swap2\n      pop\n        /* \"#utility.yul\":6335:6610   */\n      pop\n        /* \"#utility.yul\":6253:6610   */\n      swap3\n      swap2\n      pop\n      pop\n      jump\t// out\n        /* \"#utility.yul\":6616:6757   */\n    tag_136:\n        /* \"#utility.yul\":6703:6750   */\n      tag_242\n        /* \"#utility.yul\":6744:6749   */\n      dup2\n        /* \"#utility.yul\":6703:6750   */\n      tag_129\n      jump\t// in\n    tag_242:\n        /* \"#utility.yul\":6698:6701   */\n      dup3\n        /* \"#utility.yul\":6691:6751   */\n      mstore\n        /* \"#utility.yul\":6616:6757   */\n      pop\n      pop\n      jump\t// out\n        /* \"#utility.yul\":6821:7602   */\n    tag_137:\n        /* \"#utility.yul\":6930:6933   */\n      0x00\n        /* \"#utility.yul\":6966:6970   */\n      0x60\n        /* \"#utility.yul\":6961:6964   */\n      dup4\n        /* \"#utility.yul\":6957:6971   */\n      add\n        /* \"#utility.yul\":7051:7055   */\n      0x00\n        /* \"#utility.yul\":7044:7049   */\n      dup4\n        /* \"#utility.yul\":7040:7056   */\n      add\n        /* \"#utility.yul\":7034:7057   */\n      mload\n        /* \"#utility.yul\":7070:7133   */\n      tag_244\n        /* \"#utility.yul\":7127:7131   */\n      0x00\n        /* \"#utility.yul\":7122:7125   */\n      dup7\n        /* \"#utility.yul\":7118:7132   */\n      add\n        /* \"#utility.yul\":7104:7116   */\n      dup3\n        /* \"#utility.yul\":7070:7133   */\n      tag_133\n      jump\t// in\n    tag_244:\n        /* \"#utility.yul\":6981:7143   */\n      pop\n        /* \"#utility.yul\":7226:7230   */\n      0x20\n        /* \"#utility.yul\":7219:7224   */\n      dup4\n        /* \"#utility.yul\":7215:7231   */\n      add\n        /* \"#utility.yul\":7209:7232   */\n      mload\n        /* \"#utility.yul\":7279:7282   */\n      dup5\n        /* \"#utility.yul\":7273:7277   */\n      dup3\n        /* \"#utility.yul\":7269:7283   */\n      sub\n        /* \"#utility.yul\":7262:7266   */\n      0x20\n        /* \"#utility.yul\":7257:7260   */\n      dup7\n        /* \"#utility.yul\":7253:7267   */\n      add\n        /* \"#utility.yul\":7246:7284   */\n      mstore\n        /* \"#utility.yul\":7305:7378   */\n      tag_245\n        /* \"#utility.yul\":7373:7377   */\n      dup3\n        /* \"#utility.yul\":7359:7371   */\n      dup3\n        /* \"#utility.yul\":7305:7378   */\n      tag_135\n      jump\t// in\n    tag_245:\n        /* \"#utility.yul\":7297:7378   */\n      swap2\n      pop\n        /* \"#utility.yul\":7153:7389   */\n      pop\n        /* \"#utility.yul\":7473:7477   */\n      0x40\n        /* \"#utility.yul\":7466:7471   */\n      dup4\n        /* \"#utility.yul\":7462:7478   */\n      add\n        /* \"#utility.yul\":7456:7479   */\n      mload\n        /* \"#utility.yul\":7492:7565   */\n      tag_246\n        /* \"#utility.yul\":7559:7563   */\n      0x40\n        /* \"#utility.yul\":7554:7557   */\n      dup7\n        /* \"#utility.yul\":7550:7564   */\n      add\n        /* \"#utility.yul\":7536:7548   */\n      dup3\n        /* \"#utility.yul\":7492:7565   */\n      tag_136\n      jump\t// in\n    tag_246:\n        /* \"#utility.yul\":7399:7575   */\n      pop\n        /* \"#utility.yul\":7592:7596   */\n      dup1\n        /* \"#utility.yul\":7585:7596   */\n      swap2\n      pop\n        /* \"#utility.yul\":6935:7602   */\n      pop\n        /* \"#utility.yul\":6821:7602   */\n      swap3\n      swap2\n      pop\n      pop\n      jump\t// out\n        /* \"#utility.yul\":7608:7961   */\n    tag_29:\n        /* \"#utility.yul\":7741:7745   */\n      0x00\n        /* \"#utility.yul\":7779:7781   */\n      0x20\n        /* \"#utility.yul\":7768:7777   */\n      dup3\n        /* \"#utility.yul\":7764:7782   */\n      add\n        /* \"#utility.yul\":7756:7782   */\n      swap1\n      pop\n        /* \"#utility.yul\":7828:7837   */\n      dup2\n        /* \"#utility.yul\":7822:7826   */\n      dup2\n        /* \"#utility.yul\":7818:7838   */\n      sub\n        /* \"#utility.yul\":7814:7815   */\n      0x00\n        /* \"#utility.yul\":7803:7812   */\n      dup4\n        /* \"#utility.yul\":7799:7816   */\n      add\n        /* \"#utility.yul\":7792:7839   */\n      mstore\n        /* \"#utility.yul\":7856:7954   */\n      tag_248\n        /* \"#utility.yul\":7949:7953   */\n      dup2\n        /* \"#utility.yul\":7940:7946   */\n      dup5\n        /* \"#utility.yul\":7856:7954   */\n      tag_137\n      jump\t// in\n    tag_248:\n        /* \"#utility.yul\":7848:7954   */\n      swap1\n      pop\n        /* \"#utility.yul\":7608:7961   */\n      swap3\n      swap2\n      pop\n      pop\n      jump\t// out\n        /* \"#utility.yul\":7967:8128   */\n    tag_138:\n        /* \"#utility.yul\":8107:8120   */\n      0x656d707479207469746c65000000000000000000000000000000000000000000\n        /* \"#utility.yul\":8103:8104   */\n      0x00\n        /* \"#utility.yul\":8095:8101   */\n      dup3\n        /* \"#utility.yul\":8091:8105   */\n      add\n        /* \"#utility.yul\":8084:8121   */\n      mstore\n        /* \"#utility.yul\":7967:8128   */\n      pop\n      jump\t// out\n        /* \"#utility.yul\":8134:8500   */\n    tag_139:\n        /* \"#utility.yul\":8276:8279   */\n      0x00\n        /* \"#utility.yul\":8297:8364   */\n      tag_251\n        /* \"#utility.yul\":8361:8363   */\n      0x0b\n        /* \"#utility.yul\":8356:8359   */\n      dup4\n        /* \"#utility.yul\":8297:8364   */\n      tag_123\n      jump\t// in\n    tag_251:\n        /* \"#utility.yul\":8290:8364   */\n      swap2\n      pop\n        /* \"#utility.yul\":8373:8466   */\n      tag_252\n        /* \"#utility.yul\":8462:8465   */\n      dup3\n        /* \"#utility.yul\":8373:8466   */\n      tag_138\n      jump\t// in\n    tag_252:\n        /* \"#utility.yul\":8491:8493   */\n      0x20\n        /* \"#utility.yul\":8486:8489   */\n      dup3\n        /* \"#utility.yul\":8482:8494   */\n      add\n        /* \"#utility.yul\":8475:8494   */\n      swap1\n      pop\n        /* \"#utility.yul\":8134:8500   */\n      swap2\n      swap1\n      pop\n      jump\t// out\n        /* \"#utility.yul\":8506:8925   */\n    tag_33:\n        /* \"#utility.yul\":8672:8676   */\n      0x00\n        /* \"#utility.yul\":8710:8712   */\n      0x20\n        /* \"#utility.yul\":8699:8708   */\n      dup3\n        /* \"#utility.yul\":8695:8713   */\n      add\n        /* \"#utility.yul\":8687:8713   */\n      swap1\n      pop\n        /* \"#utility.yul\":8759:8768   */\n      dup2\n        /* \"#utility.yul\":8753:8757   */\n      dup2\n        /* \"#utility.yul\":8749:8769   */\n      sub\n        /* \"#utility.yul\":8745:8746   */\n      0x00\n        /* \"#utility.yul\":8734:8743   */\n      dup4\n        /* \"#utility.yul\":8730:8747   */\n      add\n        /* \"#utility.yul\":8723:8770   */\n      mstore\n        /* \"#utility.yul\":8787:8918   */\n      tag_254\n        /* \"#utility.yul\":8913:8917   */\n      dup2\n        /* \"#utility.yul\":8787:8918   */\n      tag_139\n      jump\t// in\n    tag_254:\n        /* \"#utility.yul\":8779:8918   */\n      swap1\n      pop\n        /* \"#utility.yul\":8506:8925   */\n      swap2\n      swap1\n      pop\n      jump\t// out\n        /* \"#utility.yul\":8931:9097   */\n    tag_140:\n        /* \"#utility.yul\":9071:9089   */\n      0x6d6178696d756d20616368696576656400000000000000000000000000000000\n        /* \"#utility.yul\":9067:9068   */\n      0x00\n        /* \"#utility.yul\":9059:9065   */\n      dup3\n        /* \"#utility.yul\":9055:9069   */\n      add\n        /* \"#utility.yul\":9048:9090   */\n      mstore\n        /* \"#utility.yul\":8931:9097   */\n      pop\n      jump\t// out\n        /* \"#utility.yul\":9103:9469   */\n    tag_141:\n        /* \"#utility.yul\":9245:9248   */\n      0x00\n        /* \"#utility.yul\":9266:9333   */\n      tag_257\n        /* \"#utility.yul\":9330:9332   */\n      0x10\n        /* \"#utility.yul\":9325:9328   */\n      dup4\n        /* \"#utility.yul\":9266:9333   */\n      tag_123\n      jump\t// in\n    tag_257:\n        /* \"#utility.yul\":9259:9333   */\n      swap2\n      pop\n        /* \"#utility.yul\":9342:9435   */\n      tag_258\n        /* \"#utility.yul\":9431:9434   */\n      dup3\n        /* \"#utility.yul\":9342:9435   */\n      tag_140\n      jump\t// in\n    tag_258:\n        /* \"#utility.yul\":9460:9462   */\n      0x20\n        /* \"#utility.yul\":9455:9458   */\n      dup3\n        /* \"#utility.yul\":9451:9463   */\n      add\n        /* \"#utility.yul\":9444:9463   */\n      swap1\n      pop\n        /* \"#utility.yul\":9103:9469   */\n      swap2\n      swap1\n      pop\n      jump\t// out\n        /* \"#utility.yul\":9475:9894   */\n    tag_36:\n        /* \"#utility.yul\":9641:9645   */\n      0x00\n        /* \"#utility.yul\":9679:9681   */\n      0x20\n        /* \"#utility.yul\":9668:9677   */\n      dup3\n        /* \"#utility.yul\":9664:9682   */\n      add\n        /* \"#utility.yul\":9656:9682   */\n      swap1\n      pop\n        /* \"#utility.yul\":9728:9737   */\n      dup2\n        /* \"#utility.yul\":9722:9726   */\n      dup2\n        /* \"#utility.yul\":9718:9738   */\n      sub\n        /* \"#utility.yul\":9714:9715   */\n      0x00\n        /* \"#utility.yul\":9703:9712   */\n      dup4\n        /* \"#utility.yul\":9699:9716   */\n      add\n        /* \"#utility.yul\":9692:9739   */\n      mstore\n        /* \"#utility.yul\":9756:9887   */\n      tag_260\n        /* \"#utility.yul\":9882:9886   */\n      dup2\n        /* \"#utility.yul\":9756:9887   */\n      tag_141\n      jump\t// in\n    tag_260:\n        /* \"#utility.yul\":9748:9887   */\n      swap1\n      pop\n        /* \"#utility.yul\":9475:9894   */\n      swap2\n      swap1\n      pop\n      jump\t// out\n        /* \"#utility.yul\":9900:10080   */\n    tag_142:\n        /* \"#utility.yul\":9948:10025   */\n      0x4e487b7100000000000000000000000000000000000000000000000000000000\n        /* \"#utility.yul\":9945:9946   */\n      0x00\n        /* \"#utility.yul\":9938:10026   */\n      mstore\n        /* \"#utility.yul\":10045:10049   */\n      0x41\n        /* \"#utility.yul\":10042:10043   */\n      0x04\n        /* \"#utility.yul\":10035:10050   */\n      mstore\n        /* \"#utility.yul\":10069:10073   */\n      0x24\n        /* \"#utility.yul\":10066:10067   */\n      0x00\n        /* \"#utility.yul\":10059:10074   */\n      revert\n        /* \"#utility.yul\":10086:10266   */\n    tag_143:\n        /* \"#utility.yul\":10134:10211   */\n      0x4e487b7100000000000000000000000000000000000000000000000000000000\n        /* \"#utility.yul\":10131:10132   */\n      0x00\n        /* \"#utility.yul\":10124:10212   */\n      mstore\n        /* \"#utility.yul\":10231:10235   */\n      0x22\n        /* \"#utility.yul\":10228:10229   */\n      0x04\n        /* \"#utility.yul\":10221:10236   */\n      mstore\n        /* \"#utility.yul\":10255:10259   */\n      0x24\n        /* \"#utility.yul\":10252:10253   */\n      0x00\n        /* \"#utility.yul\":10245:10260   */\n      revert\n        /* \"#utility.yul\":10272:10592   */\n    tag_52:\n        /* \"#utility.yul\":10316:10322   */\n      0x00\n        /* \"#utility.yul\":10353:10354   */\n      0x02\n        /* \"#utility.yul\":10347:10351   */\n      dup3\n        /* \"#utility.yul\":10343:10355   */\n      div\n        /* \"#utility.yul\":10333:10355   */\n      swap1\n      pop\n        /* \"#utility.yul\":10400:10401   */\n      0x01\n        /* \"#utility.yul\":10394:10398   */\n      dup3\n        /* \"#utility.yul\":10390:10402   */\n      and\n        /* \"#utility.yul\":10421:10439   */\n      dup1\n        /* \"#utility.yul\":10411:10492   */\n      tag_264\n      jumpi\n        /* \"#utility.yul\":10477:10481   */\n      0x7f\n        /* \"#utility.yul\":10469:10475   */\n      dup3\n        /* \"#utility.yul\":10465:10482   */\n      and\n        /* \"#utility.yul\":10455:10482   */\n      swap2\n      pop\n        /* \"#utility.yul\":10411:10492   */\n    tag_264:\n        /* \"#utility.yul\":10539:10541   */\n      0x20\n        /* \"#utility.yul\":10531:10537   */\n      dup3\n        /* \"#utility.yul\":10528:10542   */\n      lt\n        /* \"#utility.yul\":10508:10526   */\n      dup2\n        /* \"#utility.yul\":10505:10543   */\n      sub\n        /* \"#utility.yul\":10502:10586   */\n      tag_265\n      jumpi\n        /* \"#utility.yul\":10558:10576   */\n      tag_266\n      tag_143\n      jump\t// in\n    tag_266:\n        /* \"#utility.yul\":10502:10586   */\n    tag_265:\n        /* \"#utility.yul\":10323:10592   */\n      pop\n        /* \"#utility.yul\":10272:10592   */\n      swap2\n      swap1\n      pop\n      jump\t// out\n        /* \"#utility.yul\":10598:10739   */\n    tag_144:\n        /* \"#utility.yul\":10647:10651   */\n      0x00\n        /* \"#utility.yul\":10670:10673   */\n      dup2\n        /* \"#utility.yul\":10662:10673   */\n      swap1\n      pop\n        /* \"#utility.yul\":10693:10696   */\n      dup2\n        /* \"#utility.yul\":10690:10691   */\n      0x00\n        /* \"#utility.yul\":10683:10697   */\n      mstore\n        /* \"#utility.yul\":10727:10731   */\n      0x20\n        /* \"#utility.yul\":10724:10725   */\n      0x00\n        /* \"#utility.yul\":10714:10732   */\n      keccak256\n        /* \"#utility.yul\":10706:10732   */\n      swap1\n      pop\n        /* \"#utility.yul\":10598:10739   */\n      swap2\n      swap1\n      pop\n      jump\t// out\n        /* \"#utility.yul\":10745:10838   */\n    tag_145:\n        /* \"#utility.yul\":10782:10788   */\n      0x00\n        /* \"#utility.yul\":10829:10831   */\n      0x20\n        /* \"#utility.yul\":10824:10826   */\n      0x1f\n        /* \"#utility.yul\":10817:10822   */\n      dup4\n        /* \"#utility.yul\":10813:10827   */\n      add\n        /* \"#utility.yul\":10809:10832   */\n      div\n        /* \"#utility.yul\":10799:10832   */\n      swap1\n      pop\n        /* \"#utility.yul\":10745:10838   */\n      swap2\n      swap1\n      pop\n      jump\t// out\n        /* \"#utility.yul\":10844:10951   */\n    tag_146:\n        /* \"#utility.yul\":10888:10896   */\n      0x00\n        /* \"#utility.yul\":10938:10943   */\n      dup3\n        /* \"#utility.yul\":10932:10936   */\n      dup3\n        /* \"#utility.yul\":10928:10944   */\n      shl\n        /* \"#utility.yul\":10907:10944   */\n      swap1\n      pop\n        /* \"#utility.yul\":10844:10951   */\n      swap3\n      swap2\n      pop\n      pop\n      jump\t// out\n        /* \"#utility.yul\":10957:11350   */\n    tag_147:\n        /* \"#utility.yul\":11026:11032   */\n      0x00\n        /* \"#utility.yul\":11076:11077   */\n      0x08\n        /* \"#utility.yul\":11064:11074   */\n      dup4\n        /* \"#utility.yul\":11060:11078   */\n      mul\n        /* \"#utility.yul\":11099:11196   */\n      tag_271\n        /* \"#utility.yul\":11129:11195   */\n      0xffffffffffffffffffffffffffffffffffffffffffffffffffffffffffffffff\n        /* \"#utility.yul\":11118:11127   */\n      dup3\n        /* \"#utility.yul\":11099:11196   */\n      tag_146\n      jump\t// in\n    tag_271:\n        /* \"#utility.yul\":11217:11256   */\n      tag_272\n        /* \"#utility.yul\":11247:11255   */\n      dup7\n        /* \"#utility.yul\":11236:11245   */\n      dup4\n        /* \"#utility.yul\":11217:11256   */\n      tag_146\n      jump\t// in\n    tag_272:\n        /* \"#utility.yul\":11205:11256   */\n      swap6\n      pop\n        /* \"#utility.yul\":11289:11293   */\n      dup1\n        /* \"#utility.yul\":11285:11294   */\n      not\n        /* \"#utility.yul\":11278:11283   */\n      dup5\n        /* \"#utility.yul\":11274:11295   */\n      and\n        /* \"#utility.yul\":11265:11295   */\n      swap4\n      pop\n        /* \"#utility.yul\":11338:11342   */\n      dup1\n        /* \"#utility.yul\":11328:11336   */\n      dup7\n        /* \"#utility.yul\":11324:11343   */\n      and\n        /* \"#utility.yul\":11317:11322   */\n      dup5\n        /* \"#utility.yul\":11314:11344   */\n      or\n        /* \"#utility.yul\":11304:11344   */\n      swap3\n      pop\n        /* \"#utility.yul\":11033:11350   */\n      pop\n      pop\n        /* \"#utility.yul\":10957:11350   */\n      swap4\n      swap3\n      pop\n      pop\n      pop\n      jump\t// out\n        /* \"#utility.yul\":11356:11416   */\n    tag_148:\n        /* \"#utility.yul\":11384:11387   */\n      0x00\n        /* \"#utility.yul\":11405:11410   */\n      dup2\n        /* \"#utility.yul\":11398:11410   */\n      swap1\n      pop\n        /* \"#utility.yul\":11356:11416   */\n      swap2\n      swap1\n      pop\n      jump\t// out\n        /* \"#utility.yul\":11422:11564   */\n    tag_149:\n        /* \"#utility.yul\":11472:11481   */\n      0x00\n        /* \"#utility.yul\":11505:11558   */\n      tag_275\n        /* \"#utility.yul\":11523:11557   */\n      tag_276\n        /* \"#utility.yul\":11532:11556   */\n      tag_277\n        /* \"#utility.yul\":11550:11555   */\n      dup5\n        /* \"#utility.yul\":11532:11556   */\n      tag_118\n      jump\t// in\n    tag_277:\n        /* \"#utility.yul\":11523:11557   */\n      tag_148\n      jump\t// in\n    tag_276:\n        /* \"#utility.yul\":11505:11558   */\n      tag_118\n      jump\t// in\n    tag_275:\n        /* \"#utility.yul\":11492:11558   */\n      swap1\n      pop\n        /* \"#utility.yul\":11422:11564   */\n      swap2\n      swap1\n      pop\n      jump\t// out\n        /* \"#utility.yul\":11570:11645   */\n    tag_150:\n        /* \"#utility.yul\":11613:11616   */\n      0x00\n        /* \"#utility.yul\":11634:11639   */\n      dup2\n        /* \"#utility.yul\":11627:11639   */\n      swap1\n      pop\n        /* \"#utility.yul\":11570:11645   */\n      swap2\n      swap1\n      pop\n      jump\t// out\n        /* \"#utility.yul\":11651:11920   */\n    tag_151:\n        /* \"#utility.yul\":11761:11800   */\n      tag_280\n        /* \"#utility.yul\":11792:11799   */\n      dup4\n        /* \"#utility.yul\":11761:11800   */\n      tag_149\n      jump\t// in\n    tag_280:\n        /* \"#utility.yul\":11822:11913   */\n      tag_281\n        /* \"#utility.yul\":11871:11912   */\n      tag_282\n        /* \"#utility.yul\":11895:11911   */\n      dup3\n        /* \"#utility.yul\":11871:11912   */\n      tag_150\n      jump\t// in\n    tag_282:\n        /* \"#utility.yul\":11863:11869   */\n      dup5\n        /* \"#utility.yul\":11856:11860   */\n      dup5\n        /* \"#utility.yul\":11850:11861   */\n      sload\n        /* \"#utility.yul\":11822:11913   */\n      tag_147\n      jump\t// in\n    tag_281:\n        /* \"#utility.yul\":11816:11820   */\n      dup3\n        /* \"#utility.yul\":11809:11914   */\n      sstore\n        /* \"#utility.yul\":11727:11920   */\n      pop\n        /* \"#utility.yul\":11651:11920   */\n      pop\n      pop\n      pop\n      jump\t// out\n        /* \"#utility.yul\":11926:11999   */\n    tag_152:\n        /* \"#utility.yul\":11971:11974   */\n      0x00\n        /* \"#utility.yul\":11926:11999   */\n      swap1\n      jump\t// out\n        /* \"#utility.yul\":12005:12194   */\n    tag_153:\n        /* \"#utility.yul\":12082:12114   */\n      tag_285\n      tag_152\n      jump\t// in\n    tag_285:\n        /* \"#utility.yul\":12123:12188   */\n      tag_286\n        /* \"#utility.yul\":12181:12187   */\n      dup2\n        /* \"#utility.yul\":12173:12179   */\n      dup5\n        /* \"#utility.yul\":12167:12171   */\n      dup5\n        /* \"#utility.yul\":12123:12188   */\n      tag_151\n      jump\t// in\n    tag_286:\n        /* \"#utility.yul\":12058:12194   */\n      pop\n        /* \"#utility.yul\":12005:12194   */\n      pop\n      pop\n      jump\t// out\n        /* \"#utility.yul\":12200:12386   */\n    tag_154:\n        /* \"#utility.yul\":12260:12380   */\n    tag_288:\n        /* \"#utility.yul\":12277:12280   */\n      dup2\n        /* \"#utility.yul\":12270:12275   */\n      dup2\n        /* \"#utility.yul\":12267:12281   */\n      lt\n        /* \"#utility.yul\":12260:12380   */\n      iszero\n      tag_290\n      jumpi\n        /* \"#utility.yul\":12331:12370   */\n      tag_291\n        /* \"#utility.yul\":12368:12369   */\n      0x00\n        /* \"#utility.yul\":12361:12366   */\n      dup3\n        /* \"#utility.yul\":12331:12370   */\n      tag_153\n      jump\t// in\n    tag_291:\n        /* \"#utility.yul\":12304:12305   */\n      0x01\n        /* \"#utility.yul\":12297:12302   */\n      dup2\n        /* \"#utility.yul\":12293:12306   */\n      add\n        /* \"#utility.yul\":12284:12306   */\n      swap1\n      pop\n        /* \"#utility.yul\":12260:12380   */\n      jump(tag_288)\n    tag_290:\n        /* \"#utility.yul\":12200:12386   */\n      pop\n      pop\n      jump\t// out\n        /* \"#utility.yul\":12392:12935   */\n    tag_155:\n        /* \"#utility.yul\":12493:12495   */\n      0x1f\n        /* \"#utility.yul\":12488:12491   */\n      dup3\n        /* \"#utility.yul\":12485:12496   */\n      gt\n        /* \"#utility.yul\":12482:12928   */\n      iszero\n      tag_293\n      jumpi\n        /* \"#utility.yul\":12527:12565   */\n      tag_294\n        /* \"#utility.yul\":12559:12564   */\n      dup2\n        /* \"#utility.yul\":12527:12565   */\n      tag_144\n      jump\t// in\n    tag_294:\n        /* \"#utility.yul\":12611:12640   */\n      tag_295\n        /* \"#utility.yul\":12629:12639   */\n      dup5\n        /* \"#utility.yul\":12611:12640   */\n      tag_145\n      jump\t// in\n    tag_295:\n        /* \"#utility.yul\":12601:12609   */\n      dup2\n        /* \"#utility.yul\":12597:12641   */\n      add\n        /* \"#utility.yul\":12794:12796   */\n      0x20\n        /* \"#utility.yul\":12782:12792   */\n      dup6\n        /* \"#utility.yul\":12779:12797   */\n      lt\n        /* \"#utility.yul\":12776:12825   */\n      iszero\n      tag_296\n      jumpi\n        /* \"#utility.yul\":12815:12823   */\n      dup2\n        /* \"#utility.yul\":12800:12823   */\n      swap1\n      pop\n        /* \"#utility.yul\":12776:12825   */\n    tag_296:\n        /* \"#utility.yul\":12838:12918   */\n      tag_297\n        /* \"#utility.yul\":12894:12916   */\n      tag_298\n        /* \"#utility.yul\":12912:12915   */\n      dup6\n        /* \"#utility.yul\":12894:12916   */\n      tag_145\n      jump\t// in\n    tag_298:\n        /* \"#utility.yul\":12884:12892   */\n      dup4\n        /* \"#utility.yul\":12880:12917   */\n      add\n        /* \"#utility.yul\":12867:12878   */\n      dup3\n        /* \"#utility.yul\":12838:12918   */\n      tag_154\n      jump\t// in\n    tag_297:\n        /* \"#utility.yul\":12497:12928   */\n      pop\n      pop\n        /* \"#utility.yul\":12482:12928   */\n    tag_293:\n        /* \"#utility.yul\":12392:12935   */\n      pop\n      pop\n      pop\n      jump\t// out\n        /* \"#utility.yul\":12941:13058   */\n    tag_156:\n        /* \"#utility.yul\":12995:13003   */\n      0x00\n        /* \"#utility.yul\":13045:13050   */\n      dup3\n        /* \"#utility.yul\":13039:13043   */\n      dup3\n        /* \"#utility.yul\":13035:13051   */\n      shr\n        /* \"#utility.yul\":13014:13051   */\n      swap1\n      pop\n        /* \"#utility.yul\":12941:13058   */\n      swap3\n      swap2\n      pop\n      pop\n      jump\t// out\n        /* \"#utility.yul\":13064:13233   */\n    tag_157:\n        /* \"#utility.yul\":13108:13114   */\n      0x00\n        /* \"#utility.yul\":13141:13192   */\n      tag_301\n        /* \"#utility.yul\":13189:13190   */\n      0x00\n        /* \"#utility.yul\":13185:13191   */\n      not\n        /* \"#utility.yul\":13177:13182   */\n      dup5\n        /* \"#utility.yul\":13174:13175   */\n      0x08\n        /* \"#utility.yul\":13170:13183   */\n      mul\n        /* \"#utility.yul\":13141:13192   */\n      tag_156\n      jump\t// in\n    tag_301:\n        /* \"#utility.yul\":13137:13193   */\n      not\n        /* \"#utility.yul\":13222:13226   */\n      dup1\n        /* \"#utility.yul\":13216:13220   */\n      dup4\n        /* \"#utility.yul\":13212:13227   */\n      and\n        /* \"#utility.yul\":13202:13227   */\n      swap2\n      pop\n        /* \"#utility.yul\":13115:13233   */\n      pop\n        /* \"#utility.yul\":13064:13233   */\n      swap3\n      swap2\n      pop\n      pop\n      jump\t// out\n        /* \"#utility.yul\":13238:13533   */\n    tag_158:\n        /* \"#utility.yul\":13314:13318   */\n      0x00\n        /* \"#utility.yul\":13460:13489   */\n      tag_303\n        /* \"#utility.yul\":13485:13488   */\n      dup4\n        /* \"#utility.yul\":13479:13483   */\n      dup4\n        /* \"#utility.yul\":13460:13489   */\n      tag_157\n      jump\t// in\n    tag_303:\n        /* \"#utility.yul\":13452:13489   */\n      swap2\n      pop\n        /* \"#utility.yul\":13522:13525   */\n      dup3\n        /* \"#utility.yul\":13519:13520   */\n      0x02\n        /* \"#utility.yul\":13515:13526   */\n      mul\n        /* \"#utility.yul\":13509:13513   */\n      dup3\n        /* \"#utility.yul\":13506:13527   */\n      or\n        /* \"#utility.yul\":13498:13527   */\n      swap1\n      pop\n        /* \"#utility.yul\":13238:13533   */\n      swap3\n      swap2\n      pop\n      pop\n      jump\t// out\n        /* \"#utility.yul\":13538:14933   */\n    tag_42:\n        /* \"#utility.yul\":13655:13692   */\n      tag_305\n        /* \"#utility.yul\":13688:13691   */\n      dup3\n        /* \"#utility.yul\":13655:13692   */\n      tag_122\n      jump\t// in\n    tag_305:\n        /* \"#utility.yul\":13757:13775   */\n      0xffffffffffffffff\n        /* \"#utility.yul\":13749:13755   */\n      dup2\n        /* \"#utility.yul\":13746:13776   */\n      gt\n        /* \"#utility.yul\":13743:13799   */\n      iszero\n      tag_306\n      jumpi\n        /* \"#utility.yul\":13779:13797   */\n      tag_307\n      tag_142\n      jump\t// in\n    tag_307:\n        /* \"#utility.yul\":13743:13799   */\n    tag_306:\n        /* \"#utility.yul\":13823:13861   */\n      tag_308\n        /* \"#utility.yul\":13855:13859   */\n      dup3\n        /* \"#utility.yul\":13849:13860   */\n      sload\n        /* \"#utility.yul\":13823:13861   */\n      tag_52\n      jump\t// in\n    tag_308:\n        /* \"#utility.yul\":13908:13975   */\n      tag_309\n        /* \"#utility.yul\":13968:13974   */\n      dup3\n        /* \"#utility.yul\":13960:13966   */\n      dup3\n        /* \"#utility.yul\":13954:13958   */\n      dup6\n        /* \"#utility.yul\":13908:13975   */\n      tag_155\n      jump\t// in\n    tag_309:\n        /* \"#utility.yul\":14002:14003   */\n      0x00\n        /* \"#utility.yul\":14026:14030   */\n      0x20\n        /* \"#utility.yul\":14013:14030   */\n      swap1\n      pop\n        /* \"#utility.yul\":14058:14060   */\n      0x1f\n        /* \"#utility.yul\":14050:14056   */\n      dup4\n        /* \"#utility.yul\":14047:14061   */\n      gt\n        /* \"#utility.yul\":14075:14076   */\n      0x01\n        /* \"#utility.yul\":14070:14688   */\n      dup2\n      eq\n      tag_311\n      jumpi\n        /* \"#utility.yul\":14732:14733   */\n      0x00\n        /* \"#utility.yul\":14749:14755   */\n      dup5\n        /* \"#utility.yul\":14746:14823   */\n      iszero\n      tag_312\n      jumpi\n        /* \"#utility.yul\":14798:14807   */\n      dup3\n        /* \"#utility.yul\":14793:14796   */\n      dup8\n        /* \"#utility.yul\":14789:14808   */\n      add\n        /* \"#utility.yul\":14783:14809   */\n      mload\n        /* \"#utility.yul\":14774:14809   */\n      swap1\n      pop\n        /* \"#utility.yul\":14746:14823   */\n    tag_312:\n        /* \"#utility.yul\":14849:14916   */\n      tag_313\n        /* \"#utility.yul\":14909:14915   */\n      dup6\n        /* \"#utility.yul\":14902:14907   */\n      dup3\n        /* \"#utility.yul\":14849:14916   */\n      tag_158\n      jump\t// in\n    tag_313:\n        /* \"#utility.yul\":14843:14847   */\n      dup7\n        /* \"#utility.yul\":14836:14917   */\n      sstore\n        /* \"#utility.yul\":14705:14927   */\n      pop\n        /* \"#utility.yul\":14040:14927   */\n      jump(tag_310)\n        /* \"#utility.yul\":14070:14688   */\n    tag_311:\n        /* \"#utility.yul\":14122:14126   */\n      0x1f\n        /* \"#utility.yul\":14118:14127   */\n      not\n        /* \"#utility.yul\":14110:14116   */\n      dup5\n        /* \"#utility.yul\":14106:14128   */\n      and\n        /* \"#utility.yul\":14156:14193   */\n      tag_314\n        /* \"#utility.yul\":14188:14192   */\n      dup7\n        /* \"#utility.yul\":14156:14193   */\n      tag_144\n      jump\t// in\n    tag_314:\n        /* \"#utility.yul\":14215:14216   */\n      0x00\n        /* \"#utility.yul\":14229:14437   */\n    tag_315:\n        /* \"#utility.yul\":14243:14250   */\n      dup3\n        /* \"#utility.yul\":14240:14241   */\n      dup2\n        /* \"#utility.yul\":14237:14251   */\n      lt\n        /* \"#utility.yul\":14229:14437   */\n      iszero\n      tag_317\n      jumpi\n        /* \"#utility.yul\":14322:14331   */\n      dup5\n        /* \"#utility.yul\":14317:14320   */\n      dup10\n        /* \"#utility.yul\":14313:14332   */\n      add\n        /* \"#utility.yul\":14307:14333   */\n      mload\n        /* \"#utility.yul\":14299:14305   */\n      dup3\n        /* \"#utility.yul\":14292:14334   */\n      sstore\n        /* \"#utility.yul\":14373:14374   */\n      0x01\n        /* \"#utility.yul\":14365:14371   */\n      dup3\n        /* \"#utility.yul\":14361:14375   */\n      add\n        /* \"#utility.yul\":14351:14375   */\n      swap2\n      pop\n        /* \"#utility.yul\":14420:14422   */\n      0x20\n        /* \"#utility.yul\":14409:14418   */\n      dup6\n        /* \"#utility.yul\":14405:14423   */\n      add\n        /* \"#utility.yul\":14392:14423   */\n      swap5\n      pop\n        /* \"#utility.yul\":14266:14270   */\n      0x20\n        /* \"#utility.yul\":14263:14264   */\n      dup2\n        /* \"#utility.yul\":14259:14271   */\n      add\n        /* \"#utility.yul\":14254:14271   */\n      swap1\n      pop\n        /* \"#utility.yul\":14229:14437   */\n      jump(tag_315)\n    tag_317:\n        /* \"#utility.yul\":14465:14471   */\n      dup7\n        /* \"#utility.yul\":14456:14463   */\n      dup4\n        /* \"#utility.yul\":14453:14472   */\n      lt\n        /* \"#utility.yul\":14450:14629   */\n      iszero\n      tag_318\n      jumpi\n        /* \"#utility.yul\":14523:14532   */\n      dup5\n        /* \"#utility.yul\":14518:14521   */\n      dup10\n        /* \"#utility.yul\":14514:14533   */\n      add\n        /* \"#utility.yul\":14508:14534   */\n      mload\n        /* \"#utility.yul\":14566:14614   */\n      tag_319\n        /* \"#utility.yul\":14608:14612   */\n      0x1f\n        /* \"#utility.yul\":14600:14606   */\n      dup10\n        /* \"#utility.yul\":14596:14613   */\n      and\n        /* \"#utility.yul\":14585:14594   */\n      dup3\n        /* \"#utility.yul\":14566:14614   */\n      tag_157\n      jump\t// in\n    tag_319:\n        /* \"#utility.yul\":14558:14564   */\n      dup4\n        /* \"#utility.yul\":14551:14615   */\n      sstore\n        /* \"#utility.yul\":14473:14629   */\n      pop\n        /* \"#utility.yul\":14450:14629   */\n    tag_318:\n        /* \"#utility.yul\":14675:14676   */\n      0x01\n        /* \"#utility.yul\":14671:14672   */\n      0x02\n        /* \"#utility.yul\":14663:14669   */\n      dup9\n        /* \"#utility.yul\":14659:14673   */\n      mul\n        /* \"#utility.yul\":14655:14677   */\n      add\n        /* \"#utility.yul\":14649:14653   */\n      dup9\n        /* \"#utility.yul\":14642:14678   */\n      sstore\n        /* \"#utility.yul\":14077:14688   */\n      pop\n      pop\n      pop\n        /* \"#utility.yul\":14040:14927   */\n    tag_310:\n      pop\n        /* \"#utility.yul\":13630:14933   */\n      pop\n      pop\n      pop\n        /* \"#utility.yul\":13538:14933   */\n      pop\n      pop\n      jump\t// out\n        /* \"#utility.yul\":14939:15085   */\n    tag_159:\n        /* \"#utility.yul\":15036:15042   */\n      dup3\n        /* \"#utility.yul\":15031:15034   */\n      dup2\n        /* \"#utility.yul\":15026:15029   */\n      dup4\n        /* \"#utility.yul\":15013:15043   */\n      calldatacopy\n        /* \"#utility.yul\":15077:15078   */\n      0x00\n        /* \"#utility.yul\":15068:15074   */\n      dup4\n        /* \"#utility.yul\":15063:15066   */\n      dup4\n        /* \"#utility.yul\":15059:15075   */\n      add\n        /* \"#utility.yul\":15052:15079   */\n      mstore\n        /* \"#utility.yul\":14939:15085   */\n      pop\n      pop\n      pop\n      jump\t// out\n        /* \"#utility.yul\":15115:15432   */\n    tag_160:\n        /* \"#utility.yul\":15213:15216   */\n      0x00\n        /* \"#utility.yul\":15234:15305   */\n      tag_322\n        /* \"#utility.yul\":15298:15304   */\n      dup4\n        /* \"#utility.yul\":15293:15296   */\n      dup6\n        /* \"#utility.yul\":15234:15305   */\n      tag_123\n      jump\t// in\n    tag_322:\n        /* \"#utility.yul\":15227:15305   */\n      swap4\n      pop\n        /* \"#utility.yul\":15315:15371   */\n      tag_323\n        /* \"#utility.yul\":15364:15370   */\n      dup4\n        /* \"#utility.yul\":15359:15362   */\n      dup6\n        /* \"#utility.yul\":15352:15357   */\n      dup5\n        /* \"#utility.yul\":15315:15371   */\n      tag_159\n      jump\t// in\n    tag_323:\n        /* \"#utility.yul\":15396:15425   */\n      tag_324\n        /* \"#utility.yul\":15418:15424   */\n      dup4\n        /* \"#utility.yul\":15396:15425   */\n      tag_125\n      jump\t// in\n    tag_324:\n        /* \"#utility.yul\":15391:15394   */\n      dup5\n        /* \"#utility.yul\":15387:15426   */\n      add\n        /* \"#utility.yul\":15380:15426   */\n      swap1\n      pop\n        /* \"#utility.yul\":15115:15432   */\n      swap4\n      swap3\n      pop\n      pop\n      pop\n      jump\t// out\n        /* \"#utility.yul\":15438:15771   */\n    tag_46:\n        /* \"#utility.yul\":15561:15565   */\n      0x00\n        /* \"#utility.yul\":15599:15601   */\n      0x20\n        /* \"#utility.yul\":15588:15597   */\n      dup3\n        /* \"#utility.yul\":15584:15602   */\n      add\n        /* \"#utility.yul\":15576:15602   */\n      swap1\n      pop\n        /* \"#utility.yul\":15648:15657   */\n      dup2\n        /* \"#utility.yul\":15642:15646   */\n      dup2\n        /* \"#utility.yul\":15638:15658   */\n      sub\n        /* \"#utility.yul\":15634:15635   */\n      0x00\n        /* \"#utility.yul\":15623:15632   */\n      dup4\n        /* \"#utility.yul\":15619:15636   */\n      add\n        /* \"#utility.yul\":15612:15659   */\n      mstore\n        /* \"#utility.yul\":15676:15764   */\n      tag_326\n        /* \"#utility.yul\":15759:15763   */\n      dup2\n        /* \"#utility.yul\":15750:15756   */\n      dup5\n        /* \"#utility.yul\":15742:15748   */\n      dup7\n        /* \"#utility.yul\":15676:15764   */\n      tag_160\n      jump\t// in\n    tag_326:\n        /* \"#utility.yul\":15668:15764   */\n      swap1\n      pop\n        /* \"#utility.yul\":15438:15771   */\n      swap4\n      swap3\n      pop\n      pop\n      pop\n      jump\t// out\n        /* \"#utility.yul\":15777:15957   */\n    tag_161:\n        /* \"#utility.yul\":15825:15902   */\n      0x4e487b7100000000000000000000000000000000000000000000000000000000\n        /* \"#utility.yul\":15822:15823   */\n      0x00\n        /* \"#utility.yul\":15815:15903   */\n      mstore\n        /* \"#utility.yul\":15922:15926   */\n      0x11\n        /* \"#utility.yul\":15919:15920   */\n      0x04\n        /* \"#utility.yul\":15912:15927   */\n      mstore\n        /* \"#utility.yul\":15946:15950   */\n      0x24\n        /* \"#utility.yul\":15943:15944   */\n      0x00\n        /* \"#utility.yul\":15936:15951   */\n      revert\n        /* \"#utility.yul\":15963:16196   */\n    tag_48:\n        /* \"#utility.yul\":16002:16005   */\n      0x00\n        /* \"#utility.yul\":16025:16049   */\n      tag_329\n        /* \"#utility.yul\":16043:16048   */\n      dup3\n        /* \"#utility.yul\":16025:16049   */\n      tag_118\n      jump\t// in\n    tag_329:\n        /* \"#utility.yul\":16016:16049   */\n      swap2\n      pop\n        /* \"#utility.yul\":16071:16137   */\n      0xffffffffffffffffffffffffffffffffffffffffffffffffffffffffffffffff\n        /* \"#utility.yul\":16064:16069   */\n      dup3\n        /* \"#utility.yul\":16061:16138   */\n      sub\n        /* \"#utility.yul\":16058:16161   */\n      tag_330\n      jumpi\n        /* \"#utility.yul\":16141:16159   */\n      tag_331\n      tag_161\n      jump\t// in\n    tag_331:\n        /* \"#utility.yul\":16058:16161   */\n    tag_330:\n        /* \"#utility.yul\":16188:16189   */\n      0x01\n        /* \"#utility.yul\":16181:16186   */\n      dup3\n        /* \"#utility.yul\":16177:16190   */\n      add\n        /* \"#utility.yul\":16170:16190   */\n      swap1\n      pop\n        /* \"#utility.yul\":15963:16196   */\n      swap2\n      swap1\n      pop\n      jump\t// out\n        /* \"#utility.yul\":16202:16369   */\n    tag_162:\n        /* \"#utility.yul\":16342:16361   */\n      0x696420646f6573206e6f74206578697374000000000000000000000000000000\n        /* \"#utility.yul\":16338:16339   */\n      0x00\n        /* \"#utility.yul\":16330:16336   */\n      dup3\n        /* \"#utility.yul\":16326:16340   */\n      add\n        /* \"#utility.yul\":16319:16362   */\n      mstore\n        /* \"#utility.yul\":16202:16369   */\n      pop\n      jump\t// out\n        /* \"#utility.yul\":16375:16741   */\n    tag_163:\n        /* \"#utility.yul\":16517:16520   */\n      0x00\n        /* \"#utility.yul\":16538:16605   */\n      tag_334\n        /* \"#utility.yul\":16602:16604   */\n      0x11\n        /* \"#utility.yul\":16597:16600   */\n      dup4\n        /* \"#utility.yul\":16538:16605   */\n      tag_123\n      jump\t// in\n    tag_334:\n        /* \"#utility.yul\":16531:16605   */\n      swap2\n      pop\n        /* \"#utility.yul\":16614:16707   */\n      tag_335\n        /* \"#utility.yul\":16703:16706   */\n      dup3\n        /* \"#utility.yul\":16614:16707   */\n      tag_162\n      jump\t// in\n    tag_335:\n        /* \"#utility.yul\":16732:16734   */\n      0x20\n        /* \"#utility.yul\":16727:16730   */\n      dup3\n        /* \"#utility.yul\":16723:16735   */\n      add\n        /* \"#utility.yul\":16716:16735   */\n      swap1\n      pop\n        /* \"#utility.yul\":16375:16741   */\n      swap2\n      swap1\n      pop\n      jump\t// out\n        /* \"#utility.yul\":16747:17166   */\n    tag_60:\n        /* \"#utility.yul\":16913:16917   */\n      0x00\n        /* \"#utility.yul\":16951:16953   */\n      0x20\n        /* \"#utility.yul\":16940:16949   */\n      dup3\n        /* \"#utility.yul\":16936:16954   */\n      add\n        /* \"#utility.yul\":16928:16954   */\n      swap1\n      pop\n        /* \"#utility.yul\":17000:17009   */\n      dup2\n        /* \"#utility.yul\":16994:16998   */\n      dup2\n        /* \"#utility.yul\":16990:17010   */\n      sub\n        /* \"#utility.yul\":16986:16987   */\n      0x00\n        /* \"#utility.yul\":16975:16984   */\n      dup4\n        /* \"#utility.yul\":16971:16988   */\n      add\n        /* \"#utility.yul\":16964:17011   */\n      mstore\n        /* \"#utility.yul\":17028:17159   */\n      tag_337\n        /* \"#utility.yul\":17154:17158   */\n      dup2\n        /* \"#utility.yul\":17028:17159   */\n      tag_163\n      jump\t// in\n    tag_337:\n        /* \"#utility.yul\":17020:17159   */\n      swap1\n      pop\n        /* \"#utility.yul\":16747:17166   */\n      swap2\n      swap1\n      pop\n      jump\t// out\n        /* \"#utility.yul\":17172:17352   */\n    tag_64:\n        /* \"#utility.yul\":17220:17297   */\n      0x4e487b7100000000000000000000000000000000000000000000000000000000\n        /* \"#utility.yul\":17217:17218   */\n      0x00\n        /* \"#utility.yul\":17210:17298   */\n      mstore\n        /* \"#utility.yul\":17317:17321   */\n      0x32\n        /* \"#utility.yul\":17314:17315   */\n      0x04\n        /* \"#utility.yul\":17307:17322   */\n      mstore\n        /* \"#utility.yul\":17341:17345   */\n      0x24\n        /* \"#utility.yul\":17338:17339   */\n      0x00\n        /* \"#utility.yul\":17331:17346   */\n      revert\n        /* \"#utility.yul\":17358:17529   */\n    tag_96:\n        /* \"#utility.yul\":17397:17400   */\n      0x00\n        /* \"#utility.yul\":17420:17444   */\n      tag_340\n        /* \"#utility.yul\":17438:17443   */\n      dup3\n        /* \"#utility.yul\":17420:17444   */\n      tag_118\n      jump\t// in\n    tag_340:\n        /* \"#utility.yul\":17411:17444   */\n      swap2\n      pop\n        /* \"#utility.yul\":17466:17470   */\n      0x00\n        /* \"#utility.yul\":17459:17464   */\n      dup3\n        /* \"#utility.yul\":17456:17471   */\n      sub\n        /* \"#utility.yul\":17453:17494   */\n      tag_341\n      jumpi\n        /* \"#utility.yul\":17474:17492   */\n      tag_342\n      tag_161\n      jump\t// in\n    tag_342:\n        /* \"#utility.yul\":17453:17494   */\n    tag_341:\n        /* \"#utility.yul\":17521:17522   */\n      0x01\n        /* \"#utility.yul\":17514:17519   */\n      dup3\n        /* \"#utility.yul\":17510:17523   */\n      sub\n        /* \"#utility.yul\":17503:17523   */\n      swap1\n      pop\n        /* \"#utility.yul\":17358:17529   */\n      swap2\n      swap1\n      pop\n      jump\t// out\n\n    auxdata: 0xa264697066735822122089f9020e38790e98431272936e294b0d8b40fc5a7e6aa4af8b256e8acca48ac264736f6c63430008130033\n}\n",
				"bytecode": {
					"linkReferences": {},
					"object": "608060405234801561001057600080fd5b506110ad806100206000396000f3fe608060405234801561001057600080fd5b50600436106100575760003560e01c8063111002aa1461005c57806358671730146100785780638d97767214610096578063ab9b6811146100c8578063e9d8be6d146100e4575b600080fd5b61007660048036038101906100719190610799565b610102565b005b6100806102d6565b60405161008d91906107ff565b60405180910390f35b6100b060048036038101906100ab9190610846565b6102dc565b6040516100bf9392919061097a565b60405180910390f35b6100e260048036038101906100dd91906109dd565b6103ab565b005b6100ec610445565b6040516100f99190610ad5565b60405180910390f35b60008282905011610148576040517f08c379a000000000000000000000000000000000000000000000000000000000815260040161013f90610b43565b60405180910390fd5b600a6001541061018d576040517f08c379a000000000000000000000000000000000000000000000000000000000815260040161018490610baf565b60405180910390fd5b60006040518060600160405280600154815260200184848080601f016020809104026020016040519081016040528093929190818152602001838380828437600081840152601f19601f82011690508083019250505050505050815260200160006002811115610200576101ff610903565b5b815250908060018154018082558091505060019003906000526020600020906003020160009091909190915060008201518160000155602082015181600101908161024b9190610e0a565b5060408201518160020160006101000a81548160ff0219169083600281111561027757610276610903565b5b021790555050506001547fa5ed9e6226c584326505694539c95cb0e3238ae09bcda5a65c00bbfdab1c666283836040516102b2929190610f18565b60405180910390a2600160008154809291906102cd90610f6b565b91905055505050565b60015481565b600081815481106102ec57600080fd5b906000526020600020906003020160009150905080600001549080600101805461031590610c2d565b80601f016020809104026020016040519081016040528092919081815260200182805461034190610c2d565b801561038e5780601f106103635761010080835404028352916020019161038e565b820191906000526020600020905b81548152906001019060200180831161037157829003601f168201915b5050505050908060020160009054906101000a900460ff16905083565b8160008054905081106103f3576040517f08c379a00000000000000000000000000000000000000000000000000000000081526004016103ea90610fff565b60405180910390fd5b81600084815481106104085761040761101f565b5b906000526020600020906003020160020160006101000a81548160ff0219169083600281111561043b5761043a610903565b5b0217905550505050565b61044d6106f7565b60008080549050905060005b818110156105df576000600281111561047557610474610903565b5b600082815481106104895761048861101f565b5b906000526020600020906003020160020160009054906101000a900460ff1660028111156104ba576104b9610903565b5b036105cc57600081815481106104d3576104d261101f565b5b90600052602060002090600302016040518060600160405290816000820154815260200160018201805461050690610c2d565b80601f016020809104026020016040519081016040528092919081815260200182805461053290610c2d565b801561057f5780601f106105545761010080835404028352916020019161057f565b820191906000526020600020905b81548152906001019060200180831161056257829003601f168201915b505050505081526020016002820160009054906101000a900460ff1660028111156105ad576105ac610903565b5b60028111156105bf576105be610903565b5b81525050925050506106f4565b80806105d790610f6b565b915050610459565b50600081806105ed9061104e565b925081548110610600576105ff61101f565b5b90600052602060002090600302016040518060600160405290816000820154815260200160018201805461063390610c2d565b80601f016020809104026020016040519081016040528092919081815260200182805461065f90610c2d565b80156106ac5780601f10610681576101008083540402835291602001916106ac565b820191906000526020600020905b81548152906001019060200180831161068f57829003601f168201915b505050505081526020016002820160009054906101000a900460ff1660028111156106da576106d9610903565b5b60028111156106ec576106eb610903565b5b815250509150505b90565b604051806060016040528060008152602001606081526020016000600281111561072457610723610903565b5b81525090565b600080fd5b600080fd5b600080fd5b600080fd5b600080fd5b60008083601f84011261075957610758610734565b5b8235905067ffffffffffffffff81111561077657610775610739565b5b6020830191508360018202830111156107925761079161073e565b5b9250929050565b600080602083850312156107b0576107af61072a565b5b600083013567ffffffffffffffff8111156107ce576107cd61072f565b5b6107da85828601610743565b92509250509250929050565b6000819050919050565b6107f9816107e6565b82525050565b600060208201905061081460008301846107f0565b92915050565b610823816107e6565b811461082e57600080fd5b50565b6000813590506108408161081a565b92915050565b60006020828403121561085c5761085b61072a565b5b600061086a84828501610831565b91505092915050565b600081519050919050565b600082825260208201905092915050565b60005b838110156108ad578082015181840152602081019050610892565b60008484015250505050565b6000601f19601f8301169050919050565b60006108d582610873565b6108df818561087e565b93506108ef81856020860161088f565b6108f8816108b9565b840191505092915050565b7f4e487b7100000000000000000000000000000000000000000000000000000000600052602160045260246000fd5b6003811061094357610942610903565b5b50565b600081905061095482610932565b919050565b600061096482610946565b9050919050565b61097481610959565b82525050565b600060608201905061098f60008301866107f0565b81810360208301526109a181856108ca565b90506109b0604083018461096b565b949350505050565b600381106109c557600080fd5b50565b6000813590506109d7816109b8565b92915050565b600080604083850312156109f4576109f361072a565b5b6000610a0285828601610831565b9250506020610a13858286016109c8565b9150509250929050565b610a26816107e6565b82525050565b600082825260208201905092915050565b6000610a4882610873565b610a528185610a2c565b9350610a6281856020860161088f565b610a6b816108b9565b840191505092915050565b610a7f81610959565b82525050565b6000606083016000830151610a9d6000860182610a1d565b5060208301518482036020860152610ab58282610a3d565b9150506040830151610aca6040860182610a76565b508091505092915050565b60006020820190508181036000830152610aef8184610a85565b905092915050565b7f656d707479207469746c65000000000000000000000000000000000000000000600082015250565b6000610b2d600b8361087e565b9150610b3882610af7565b602082019050919050565b60006020820190508181036000830152610b5c81610b20565b9050919050565b7f6d6178696d756d20616368696576656400000000000000000000000000000000600082015250565b6000610b9960108361087e565b9150610ba482610b63565b602082019050919050565b60006020820190508181036000830152610bc881610b8c565b9050919050565b7f4e487b7100000000000000000000000000000000000000000000000000000000600052604160045260246000fd5b7f4e487b7100000000000000000000000000000000000000000000000000000000600052602260045260246000fd5b60006002820490506001821680610c4557607f821691505b602082108103610c5857610c57610bfe565b5b50919050565b60008190508160005260206000209050919050565b60006020601f8301049050919050565b600082821b905092915050565b600060088302610cc07fffffffffffffffffffffffffffffffffffffffffffffffffffffffffffffffff82610c83565b610cca8683610c83565b95508019841693508086168417925050509392505050565b6000819050919050565b6000610d07610d02610cfd846107e6565b610ce2565b6107e6565b9050919050565b6000819050919050565b610d2183610cec565b610d35610d2d82610d0e565b848454610c90565b825550505050565b600090565b610d4a610d3d565b610d55818484610d18565b505050565b5b81811015610d7957610d6e600082610d42565b600181019050610d5b565b5050565b601f821115610dbe57610d8f81610c5e565b610d9884610c73565b81016020851015610da7578190505b610dbb610db385610c73565b830182610d5a565b50505b505050565b600082821c905092915050565b6000610de160001984600802610dc3565b1980831691505092915050565b6000610dfa8383610dd0565b9150826002028217905092915050565b610e1382610873565b67ffffffffffffffff811115610e2c57610e2b610bcf565b5b610e368254610c2d565b610e41828285610d7d565b600060209050601f831160018114610e745760008415610e62578287015190505b610e6c8582610dee565b865550610ed4565b601f198416610e8286610c5e565b60005b82811015610eaa57848901518255600182019150602085019450602081019050610e85565b86831015610ec75784890151610ec3601f891682610dd0565b8355505b6001600288020188555050505b505050505050565b82818337600083830152505050565b6000610ef7838561087e565b9350610f04838584610edc565b610f0d836108b9565b840190509392505050565b60006020820190508181036000830152610f33818486610eeb565b90509392505050565b7f4e487b7100000000000000000000000000000000000000000000000000000000600052601160045260246000fd5b6000610f76826107e6565b91507fffffffffffffffffffffffffffffffffffffffffffffffffffffffffffffffff8203610fa857610fa7610f3c565b5b600182019050919050565b7f696420646f6573206e6f74206578697374000000000000000000000000000000600082015250565b6000610fe960118361087e565b9150610ff482610fb3565b602082019050919050565b6000602082019050818103600083015261101881610fdc565b9050919050565b7f4e487b7100000000000000000000000000000000000000000000000000000000600052603260045260246000fd5b6000611059826107e6565b91506000820361106c5761106b610f3c565b5b60018203905091905056fea264697066735822122089f9020e38790e98431272936e294b0d8b40fc5a7e6aa4af8b256e8acca48ac264736f6c63430008130033",
					"opcodes": "PUSH1 0x80 PUSH1 0x40 MSTORE CALLVALUE DUP1 ISZERO PUSH2 0x10 JUMPI PUSH1 0x0 DUP1 REVERT JUMPDEST POP PUSH2 0x10AD DUP1 PUSH2 0x20 PUSH1 0x0 CODECOPY PUSH1 0x0 RETURN INVALID PUSH1 0x80 PUSH1 0x40 MSTORE CALLVALUE DUP1 ISZERO PUSH2 0x10 JUMPI PUSH1 0x0 DUP1 REVERT JUMPDEST POP PUSH1 0x4 CALLDATASIZE LT PUSH2 0x57 JUMPI PUSH1 0x0 CALLDATALOAD PUSH1 0xE0 SHR DUP1 PUSH4 0x111002AA EQ PUSH2 0x5C JUMPI DUP1 PUSH4 0x58671730 EQ PUSH2 0x78 JUMPI DUP1 PUSH4 0x8D977672 EQ PUSH2 0x96 JUMPI DUP1 PUSH4 0xAB9B6811 EQ PUSH2 0xC8 JUMPI DUP1 PUSH4 0xE9D8BE6D EQ PUSH2 0xE4 JUMPI JUMPDEST PUSH1 0x0 DUP1 REVERT JUMPDEST PUSH2 0x76 PUSH1 0x4 DUP1 CALLDATASIZE SUB DUP2 ADD SWAP1 PUSH2 0x71 SWAP2 SWAP1 PUSH2 0x799 JUMP JUMPDEST PUSH2 0x102 JUMP JUMPDEST STOP JUMPDEST PUSH2 0x80 PUSH2 0x2D6 JUMP JUMPDEST PUSH1 0x40 MLOAD PUSH2 0x8D SWAP2 SWAP1 PUSH2 0x7FF JUMP JUMPDEST PUSH1 0x40 MLOAD DUP1 SWAP2 SUB SWAP1 RETURN JUMPDEST PUSH2 0xB0 PUSH1 0x4 DUP1 CALLDATASIZE SUB DUP2 ADD SWAP1 PUSH2 0xAB SWAP2 SWAP1 PUSH2 0x846 JUMP JUMPDEST PUSH2 0x2DC JUMP JUMPDEST PUSH1 0x40 MLOAD PUSH2 0xBF SWAP4 SWAP3 SWAP2 SWAP1 PUSH2 0x97A JUMP JUMPDEST PUSH1 0x40 MLOAD DUP1 SWAP2 SUB SWAP1 RETURN JUMPDEST PUSH2 0xE2 PUSH1 0x4 DUP1 CALLDATASIZE SUB DUP2 ADD SWAP1 PUSH2 0xDD SWAP2 SWAP1 PUSH2 0x9DD JUMP JUMPDEST PUSH2 0x3AB JUMP JUMPDEST STOP JUMPDEST PUSH2 0xEC PUSH2 0x445 JUMP JUMPDEST PUSH1 0x40 MLOAD PUSH2 0xF9 SWAP2 SWAP1 PUSH2 0xAD5 JUMP JUMPDEST PUSH1 0x40 MLOAD DUP1 SWAP2 SUB SWAP1 RETURN JUMPDEST PUSH1 0x0 DUP3 DUP3 SWAP1 POP GT PUSH2 0x148 JUMPI PUSH1 0x40 MLOAD PUSH32 0x8C379A000000000000000000000000000000000000000000000000000000000 DUP2 MSTORE PUSH1 0x4 ADD PUSH2 0x13F SWAP1 PUSH2 0xB43 JUMP JUMPDEST PUSH1 0x40 MLOAD DUP1 SWAP2 SUB SWAP1 REVERT JUMPDEST PUSH1 0xA PUSH1 0x1 SLOAD LT PUSH2 0x18D JUMPI PUSH1 0x40 MLOAD PUSH32 0x8C379A000000000000000000000000000000000000000000000000000000000 DUP2 MSTORE PUSH1 0x4 ADD PUSH2 0x184 SWAP1 PUSH2 0xBAF JUMP JUMPDEST PUSH1 0x40 MLOAD DUP1 SWAP2 SUB SWAP1 REVERT JUMPDEST PUSH1 0x0 PUSH1 0x40 MLOAD DUP1 PUSH1 0x60 ADD PUSH1 0x40 MSTORE DUP1 PUSH1 0x1 SLOAD DUP2 MSTORE PUSH1 0x20 ADD DUP5 DUP5 DUP1 DUP1 PUSH1 0x1F ADD PUSH1 0x20 DUP1 SWAP2 DIV MUL PUSH1 0x20 ADD PUSH1 0x40 MLOAD SWAP1 DUP2 ADD PUSH1 0x40 MSTORE DUP1 SWAP4 SWAP3 SWAP2 SWAP1 DUP2 DUP2 MSTORE PUSH1 0x20 ADD DUP4 DUP4 DUP1 DUP3 DUP5 CALLDATACOPY PUSH1 0x0 DUP2 DUP5 ADD MSTORE PUSH1 0x1F NOT PUSH1 0x1F DUP3 ADD AND SWAP1 POP DUP1 DUP4 ADD SWAP3 POP POP POP POP POP POP POP DUP2 MSTORE PUSH1 0x20 ADD PUSH1 0x0 PUSH1 0x2 DUP2 GT ISZERO PUSH2 0x200 JUMPI PUSH2 0x1FF PUSH2 0x903 JUMP JUMPDEST JUMPDEST DUP2 MSTORE POP SWAP1 DUP1 PUSH1 0x1 DUP2 SLOAD ADD DUP1 DUP3 SSTORE DUP1 SWAP2 POP POP PUSH1 0x1 SWAP1 SUB SWAP1 PUSH1 0x0 MSTORE PUSH1 0x20 PUSH1 0x0 KECCAK256 SWAP1 PUSH1 0x3 MUL ADD PUSH1 0x0 SWAP1 SWAP2 SWAP1 SWAP2 SWAP1 SWAP2 POP PUSH1 0x0 DUP3 ADD MLOAD DUP2 PUSH1 0x0 ADD SSTORE PUSH1 0x20 DUP3 ADD MLOAD DUP2 PUSH1 0x1 ADD SWAP1 DUP2 PUSH2 0x24B SWAP2 SWAP1 PUSH2 0xE0A JUMP JUMPDEST POP PUSH1 0x40 DUP3 ADD MLOAD DUP2 PUSH1 0x2 ADD PUSH1 0x0 PUSH2 0x100 EXP DUP2 SLOAD DUP2 PUSH1 0xFF MUL NOT AND SWAP1 DUP4 PUSH1 0x2 DUP2 GT ISZERO PUSH2 0x277 JUMPI PUSH2 0x276 PUSH2 0x903 JUMP JUMPDEST JUMPDEST MUL OR SWAP1 SSTORE POP POP POP PUSH1 0x1 SLOAD PUSH32 0xA5ED9E6226C584326505694539C95CB0E3238AE09BCDA5A65C00BBFDAB1C6662 DUP4 DUP4 PUSH1 0x40 MLOAD PUSH2 0x2B2 SWAP3 SWAP2 SWAP1 PUSH2 0xF18 JUMP JUMPDEST PUSH1 0x40 MLOAD DUP1 SWAP2 SUB SWAP1 LOG2 PUSH1 0x1 PUSH1 0x0 DUP2 SLOAD DUP1 SWAP3 SWAP2 SWAP1 PUSH2 0x2CD SWAP1 PUSH2 0xF6B JUMP JUMPDEST SWAP2 SWAP1 POP SSTORE POP POP POP JUMP JUMPDEST PUSH1 0x1 SLOAD DUP2 JUMP JUMPDEST PUSH1 0x0 DUP2 DUP2 SLOAD DUP2 LT PUSH2 0x2EC JUMPI PUSH1 0x0 DUP1 REVERT JUMPDEST SWAP1 PUSH1 0x0 MSTORE PUSH1 0x20 PUSH1 0x0 KECCAK256 SWAP1 PUSH1 0x3 MUL ADD PUSH1 0x0 SWAP2 POP SWAP1 POP DUP1 PUSH1 0x0 ADD SLOAD SWAP1 DUP1 PUSH1 0x1 ADD DUP1 SLOAD PUSH2 0x315 SWAP1 PUSH2 0xC2D JUMP JUMPDEST DUP1 PUSH1 0x1F ADD PUSH1 0x20 DUP1 SWAP2 DIV MUL PUSH1 0x20 ADD PUSH1 0x40 MLOAD SWAP1 DUP2 ADD PUSH1 0x40 MSTORE DUP1 SWAP3 SWAP2 SWAP1 DUP2 DUP2 MSTORE PUSH1 0x20 ADD DUP3 DUP1 SLOAD PUSH2 0x341 SWAP1 PUSH2 0xC2D JUMP JUMPDEST DUP1 ISZERO PUSH2 0x38E JUMPI DUP1 PUSH1 0x1F LT PUSH2 0x363 JUMPI PUSH2 0x100 DUP1 DUP4 SLOAD DIV MUL DUP4 MSTORE SWAP2 PUSH1 0x20 ADD SWAP2 PUSH2 0x38E JUMP JUMPDEST DUP3 ADD SWAP2 SWAP1 PUSH1 0x0 MSTORE PUSH1 0x20 PUSH1 0x0 KECCAK256 SWAP1 JUMPDEST DUP2 SLOAD DUP2 MSTORE SWAP1 PUSH1 0x1 ADD SWAP1 PUSH1 0x20 ADD DUP1 DUP4 GT PUSH2 0x371 JUMPI DUP3 SWAP1 SUB PUSH1 0x1F AND DUP3 ADD SWAP2 JUMPDEST POP POP POP POP POP SWAP1 DUP1 PUSH1 0x2 ADD PUSH1 0x0 SWAP1 SLOAD SWAP1 PUSH2 0x100 EXP SWAP1 DIV PUSH1 0xFF AND SWAP1 POP DUP4 JUMP JUMPDEST DUP2 PUSH1 0x0 DUP1 SLOAD SWAP1 POP DUP2 LT PUSH2 0x3F3 JUMPI PUSH1 0x40 MLOAD PUSH32 0x8C379A000000000000000000000000000000000000000000000000000000000 DUP2 MSTORE PUSH1 0x4 ADD PUSH2 0x3EA SWAP1 PUSH2 0xFFF JUMP JUMPDEST PUSH1 0x40 MLOAD DUP1 SWAP2 SUB SWAP1 REVERT JUMPDEST DUP2 PUSH1 0x0 DUP5 DUP2 SLOAD DUP2 LT PUSH2 0x408 JUMPI PUSH2 0x407 PUSH2 0x101F JUMP JUMPDEST JUMPDEST SWAP1 PUSH1 0x0 MSTORE PUSH1 0x20 PUSH1 0x0 KECCAK256 SWAP1 PUSH1 0x3 MUL ADD PUSH1 0x2 ADD PUSH1 0x0 PUSH2 0x100 EXP DUP2 SLOAD DUP2 PUSH1 0xFF MUL NOT AND SWAP1 DUP4 PUSH1 0x2 DUP2 GT ISZERO PUSH2 0x43B JUMPI PUSH2 0x43A PUSH2 0x903 JUMP JUMPDEST JUMPDEST MUL OR SWAP1 SSTORE POP POP POP POP JUMP JUMPDEST PUSH2 0x44D PUSH2 0x6F7 JUMP JUMPDEST PUSH1 0x0 DUP1 DUP1 SLOAD SWAP1 POP SWAP1 POP PUSH1 0x0 JUMPDEST DUP2 DUP2 LT ISZERO PUSH2 0x5DF JUMPI PUSH1 0x0 PUSH1 0x2 DUP2 GT ISZERO PUSH2 0x475 JUMPI PUSH2 0x474 PUSH2 0x903 JUMP JUMPDEST JUMPDEST PUSH1 0x0 DUP3 DUP2 SLOAD DUP2 LT PUSH2 0x489 JUMPI PUSH2 0x488 PUSH2 0x101F JUMP JUMPDEST JUMPDEST SWAP1 PUSH1 0x0 MSTORE PUSH1 0x20 PUSH1 0x0 KECCAK256 SWAP1 PUSH1 0x3 MUL ADD PUSH1 0x2 ADD PUSH1 0x0 SWAP1 SLOAD SWAP1 PUSH2 0x100 EXP SWAP1 DIV PUSH1 0xFF AND PUSH1 0x2 DUP2 GT ISZERO PUSH2 0x4BA JUMPI PUSH2 0x4B9 PUSH2 0x903 JUMP JUMPDEST JUMPDEST SUB PUSH2 0x5CC JUMPI PUSH1 0x0 DUP2 DUP2 SLOAD DUP2 LT PUSH2 0x4D3 JUMPI PUSH2 0x4D2 PUSH2 0x101F JUMP JUMPDEST JUMPDEST SWAP1 PUSH1 0x0 MSTORE PUSH1 0x20 PUSH1 0x0 KECCAK256 SWAP1 PUSH1 0x3 MUL ADD PUSH1 0x40 MLOAD DUP1 PUSH1 0x60 ADD PUSH1 0x40 MSTORE SWAP1 DUP2 PUSH1 0x0 DUP3 ADD SLOAD DUP2 MSTORE PUSH1 0x20 ADD PUSH1 0x1 DUP3 ADD DUP1 SLOAD PUSH2 0x506 SWAP1 PUSH2 0xC2D JUMP JUMPDEST DUP1 PUSH1 0x1F ADD PUSH1 0x20 DUP1 SWAP2 DIV MUL PUSH1 0x20 ADD PUSH1 0x40 MLOAD SWAP1 DUP2 ADD PUSH1 0x40 MSTORE DUP1 SWAP3 SWAP2 SWAP1 DUP2 DUP2 MSTORE PUSH1 0x20 ADD DUP3 DUP1 SLOAD PUSH2 0x532 SWAP1 PUSH2 0xC2D JUMP JUMPDEST DUP1 ISZERO PUSH2 0x57F JUMPI DUP1 PUSH1 0x1F LT PUSH2 0x554 JUMPI PUSH2 0x100 DUP1 DUP4 SLOAD DIV MUL DUP4 MSTORE SWAP2 PUSH1 0x20 ADD SWAP2 PUSH2 0x57F JUMP JUMPDEST DUP3 ADD SWAP2 SWAP1 PUSH1 0x0 MSTORE PUSH1 0x20 PUSH1 0x0 KECCAK256 SWAP1 JUMPDEST DUP2 SLOAD DUP2 MSTORE SWAP1 PUSH1 0x1 ADD SWAP1 PUSH1 0x20 ADD DUP1 DUP4 GT PUSH2 0x562 JUMPI DUP3 SWAP1 SUB PUSH1 0x1F AND DUP3 ADD SWAP2 JUMPDEST POP POP POP POP POP DUP2 MSTORE PUSH1 0x20 ADD PUSH1 0x2 DUP3 ADD PUSH1 0x0 SWAP1 SLOAD SWAP1 PUSH2 0x100 EXP SWAP1 DIV PUSH1 0xFF AND PUSH1 0x2 DUP2 GT ISZERO PUSH2 0x5AD JUMPI PUSH2 0x5AC PUSH2 0x903 JUMP JUMPDEST JUMPDEST PUSH1 0x2 DUP2 GT ISZERO PUSH2 0x5BF JUMPI PUSH2 0x5BE PUSH2 0x903 JUMP JUMPDEST JUMPDEST DUP2 MSTORE POP POP SWAP3 POP POP POP PUSH2 0x6F4 JUMP JUMPDEST DUP1 DUP1 PUSH2 0x5D7 SWAP1 PUSH2 0xF6B JUMP JUMPDEST SWAP2 POP POP PUSH2 0x459 JUMP JUMPDEST POP PUSH1 0x0 DUP2 DUP1 PUSH2 0x5ED SWAP1 PUSH2 0x104E JUMP JUMPDEST SWAP3 POP DUP2 SLOAD DUP2 LT PUSH2 0x600 JUMPI PUSH2 0x5FF PUSH2 0x101F JUMP JUMPDEST JUMPDEST SWAP1 PUSH1 0x0 MSTORE PUSH1 0x20 PUSH1 0x0 KECCAK256 SWAP1 PUSH1 0x3 MUL ADD PUSH1 0x40 MLOAD DUP1 PUSH1 0x60 ADD PUSH1 0x40 MSTORE SWAP1 DUP2 PUSH1 0x0 DUP3 ADD SLOAD DUP2 MSTORE PUSH1 0x20 ADD PUSH1 0x1 DUP3 ADD DUP1 SLOAD PUSH2 0x633 SWAP1 PUSH2 0xC2D JUMP JUMPDEST DUP1 PUSH1 0x1F ADD PUSH1 0x20 DUP1 SWAP2 DIV MUL PUSH1 0x20 ADD PUSH1 0x40 MLOAD SWAP1 DUP2 ADD PUSH1 0x40 MSTORE DUP1 SWAP3 SWAP2 SWAP1 DUP2 DUP2 MSTORE PUSH1 0x20 ADD DUP3 DUP1 SLOAD PUSH2 0x65F SWAP1 PUSH2 0xC2D JUMP JUMPDEST DUP1 ISZERO PUSH2 0x6AC JUMPI DUP1 PUSH1 0x1F LT PUSH2 0x681 JUMPI PUSH2 0x100 DUP1 DUP4 SLOAD DIV MUL DUP4 MSTORE SWAP2 PUSH1 0x20 ADD SWAP2 PUSH2 0x6AC JUMP JUMPDEST DUP3 ADD SWAP2 SWAP1 PUSH1 0x0 MSTORE PUSH1 0x20 PUSH1 0x0 KECCAK256 SWAP1 JUMPDEST DUP2 SLOAD DUP2 MSTORE SWAP1 PUSH1 0x1 ADD SWAP1 PUSH1 0x20 ADD DUP1 DUP4 GT PUSH2 0x68F JUMPI DUP3 SWAP1 SUB PUSH1 0x1F AND DUP3 ADD SWAP2 JUMPDEST POP POP POP POP POP DUP2 MSTORE PUSH1 0x20 ADD PUSH1 0x2 DUP3 ADD PUSH1 0x0 SWAP1 SLOAD SWAP1 PUSH2 0x100 EXP SWAP1 DIV PUSH1 0xFF AND PUSH1 0x2 DUP2 GT ISZERO PUSH2 0x6DA JUMPI PUSH2 0x6D9 PUSH2 0x903 JUMP JUMPDEST JUMPDEST PUSH1 0x2 DUP2 GT ISZERO PUSH2 0x6EC JUMPI PUSH2 0x6EB PUSH2 0x903 JUMP JUMPDEST JUMPDEST DUP2 MSTORE POP POP SWAP2 POP POP JUMPDEST SWAP1 JUMP JUMPDEST PUSH1 0x40 MLOAD DUP1 PUSH1 0x60 ADD PUSH1 0x40 MSTORE DUP1 PUSH1 0x0 DUP2 MSTORE PUSH1 0x20 ADD PUSH1 0x60 DUP2 MSTORE PUSH1 0x20 ADD PUSH1 0x0 PUSH1 0x2 DUP2 GT ISZERO PUSH2 0x724 JUMPI PUSH2 0x723 PUSH2 0x903 JUMP JUMPDEST JUMPDEST DUP2 MSTORE POP SWAP1 JUMP JUMPDEST PUSH1 0x0 DUP1 REVERT JUMPDEST PUSH1 0x0 DUP1 REVERT JUMPDEST PUSH1 0x0 DUP1 REVERT JUMPDEST PUSH1 0x0 DUP1 REVERT JUMPDEST PUSH1 0x0 DUP1 REVERT JUMPDEST PUSH1 0x0 DUP1 DUP4 PUSH1 0x1F DUP5 ADD SLT PUSH2 0x759 JUMPI PUSH2 0x758 PUSH2 0x734 JUMP JUMPDEST JUMPDEST DUP3 CALLDATALOAD SWAP1 POP PUSH8 0xFFFFFFFFFFFFFFFF DUP2 GT ISZERO PUSH2 0x776 JUMPI PUSH2 0x775 PUSH2 0x739 JUMP JUMPDEST JUMPDEST PUSH1 0x20 DUP4 ADD SWAP2 POP DUP4 PUSH1 0x1 DUP3 MUL DUP4 ADD GT ISZERO PUSH2 0x792 JUMPI PUSH2 0x791 PUSH2 0x73E JUMP JUMPDEST JUMPDEST SWAP3 POP SWAP3 SWAP1 POP JUMP JUMPDEST PUSH1 0x0 DUP1 PUSH1 0x20 DUP4 DUP6 SUB SLT ISZERO PUSH2 0x7B0 JUMPI PUSH2 0x7AF PUSH2 0x72A JUMP JUMPDEST JUMPDEST PUSH1 0x0 DUP4 ADD CALLDATALOAD PUSH8 0xFFFFFFFFFFFFFFFF DUP2 GT ISZERO PUSH2 0x7CE JUMPI PUSH2 0x7CD PUSH2 0x72F JUMP JUMPDEST JUMPDEST PUSH2 0x7DA DUP6 DUP3 DUP7 ADD PUSH2 0x743 JUMP JUMPDEST SWAP3 POP SWAP3 POP POP SWAP3 POP SWAP3 SWAP1 POP JUMP JUMPDEST PUSH1 0x0 DUP2 SWAP1 POP SWAP2 SWAP1 POP JUMP JUMPDEST PUSH2 0x7F9 DUP2 PUSH2 0x7E6 JUMP JUMPDEST DUP3 MSTORE POP POP JUMP JUMPDEST PUSH1 0x0 PUSH1 0x20 DUP3 ADD SWAP1 POP PUSH2 0x814 PUSH1 0x0 DUP4 ADD DUP5 PUSH2 0x7F0 JUMP JUMPDEST SWAP3 SWAP2 POP POP JUMP JUMPDEST PUSH2 0x823 DUP2 PUSH2 0x7E6 JUMP JUMPDEST DUP2 EQ PUSH2 0x82E JUMPI PUSH1 0x0 DUP1 REVERT JUMPDEST POP JUMP JUMPDEST PUSH1 0x0 DUP2 CALLDATALOAD SWAP1 POP PUSH2 0x840 DUP2 PUSH2 0x81A JUMP JUMPDEST SWAP3 SWAP2 POP POP JUMP JUMPDEST PUSH1 0x0 PUSH1 0x20 DUP3 DUP5 SUB SLT ISZERO PUSH2 0x85C JUMPI PUSH2 0x85B PUSH2 0x72A JUMP JUMPDEST JUMPDEST PUSH1 0x0 PUSH2 0x86A DUP5 DUP3 DUP6 ADD PUSH2 0x831 JUMP JUMPDEST SWAP2 POP POP SWAP3 SWAP2 POP POP JUMP JUMPDEST PUSH1 0x0 DUP2 MLOAD SWAP1 POP SWAP2 SWAP1 POP JUMP JUMPDEST PUSH1 0x0 DUP3 DUP3 MSTORE PUSH1 0x20 DUP3 ADD SWAP1 POP SWAP3 SWAP2 POP POP JUMP JUMPDEST PUSH1 0x0 JUMPDEST DUP4 DUP2 LT ISZERO PUSH2 0x8AD JUMPI DUP1 DUP3 ADD MLOAD DUP2 DUP5 ADD MSTORE PUSH1 0x20 DUP2 ADD SWAP1 POP PUSH2 0x892 JUMP JUMPDEST PUSH1 0x0 DUP5 DUP5 ADD MSTORE POP POP POP POP JUMP JUMPDEST PUSH1 0x0 PUSH1 0x1F NOT PUSH1 0x1F DUP4 ADD AND SWAP1 POP SWAP2 SWAP1 POP JUMP JUMPDEST PUSH1 0x0 PUSH2 0x8D5 DUP3 PUSH2 0x873 JUMP JUMPDEST PUSH2 0x8DF DUP2 DUP6 PUSH2 0x87E JUMP JUMPDEST SWAP4 POP PUSH2 0x8EF DUP2 DUP6 PUSH1 0x20 DUP7 ADD PUSH2 0x88F JUMP JUMPDEST PUSH2 0x8F8 DUP2 PUSH2 0x8B9 JUMP JUMPDEST DUP5 ADD SWAP2 POP POP SWAP3 SWAP2 POP POP JUMP JUMPDEST PUSH32 0x4E487B7100000000000000000000000000000000000000000000000000000000 PUSH1 0x0 MSTORE PUSH1 0x21 PUSH1 0x4 MSTORE PUSH1 0x24 PUSH1 0x0 REVERT JUMPDEST PUSH1 0x3 DUP2 LT PUSH2 0x943 JUMPI PUSH2 0x942 PUSH2 0x903 JUMP JUMPDEST JUMPDEST POP JUMP JUMPDEST PUSH1 0x0 DUP2 SWAP1 POP PUSH2 0x954 DUP3 PUSH2 0x932 JUMP JUMPDEST SWAP2 SWAP1 POP JUMP JUMPDEST PUSH1 0x0 PUSH2 0x964 DUP3 PUSH2 0x946 JUMP JUMPDEST SWAP1 POP SWAP2 SWAP1 POP JUMP JUMPDEST PUSH2 0x974 DUP2 PUSH2 0x959 JUMP JUMPDEST DUP3 MSTORE POP POP JUMP JUMPDEST PUSH1 0x0 PUSH1 0x60 DUP3 ADD SWAP1 POP PUSH2 0x98F PUSH1 0x0 DUP4 ADD DUP7 PUSH2 0x7F0 JUMP JUMPDEST DUP2 DUP2 SUB PUSH1 0x20 DUP4 ADD MSTORE PUSH2 0x9A1 DUP2 DUP6 PUSH2 0x8CA JUMP JUMPDEST SWAP1 POP PUSH2 0x9B0 PUSH1 0x40 DUP4 ADD DUP5 PUSH2 0x96B JUMP JUMPDEST SWAP5 SWAP4 POP POP POP POP JUMP JUMPDEST PUSH1 0x3 DUP2 LT PUSH2 0x9C5 JUMPI PUSH1 0x0 DUP1 REVERT JUMPDEST POP JUMP JUMPDEST PUSH1 0x0 DUP2 CALLDATALOAD SWAP1 POP PUSH2 0x9D7 DUP2 PUSH2 0x9B8 JUMP JUMPDEST SWAP3 SWAP2 POP POP JUMP JUMPDEST PUSH1 0x0 DUP1 PUSH1 0x40 DUP4 DUP6 SUB SLT ISZERO PUSH2 0x9F4 JUMPI PUSH2 0x9F3 PUSH2 0x72A JUMP JUMPDEST JUMPDEST PUSH1 0x0 PUSH2 0xA02 DUP6 DUP3 DUP7 ADD PUSH2 0x831 JUMP JUMPDEST SWAP3 POP POP PUSH1 0x20 PUSH2 0xA13 DUP6 DUP3 DUP7 ADD PUSH2 0x9C8 JUMP JUMPDEST SWAP2 POP POP SWAP3 POP SWAP3 SWAP1 POP JUMP JUMPDEST PUSH2 0xA26 DUP2 PUSH2 0x7E6 JUMP JUMPDEST DUP3 MSTORE POP POP JUMP JUMPDEST PUSH1 0x0 DUP3 DUP3 MSTORE PUSH1 0x20 DUP3 ADD SWAP1 POP SWAP3 SWAP2 POP POP JUMP JUMPDEST PUSH1 0x0 PUSH2 0xA48 DUP3 PUSH2 0x873 JUMP JUMPDEST PUSH2 0xA52 DUP2 DUP6 PUSH2 0xA2C JUMP JUMPDEST SWAP4 POP PUSH2 0xA62 DUP2 DUP6 PUSH1 0x20 DUP7 ADD PUSH2 0x88F JUMP JUMPDEST PUSH2 0xA6B DUP2 PUSH2 0x8B9 JUMP JUMPDEST DUP5 ADD SWAP2 POP POP SWAP3 SWAP2 POP POP JUMP JUMPDEST PUSH2 0xA7F DUP2 PUSH2 0x959 JUMP JUMPDEST DUP3 MSTORE POP POP JUMP JUMPDEST PUSH1 0x0 PUSH1 0x60 DUP4 ADD PUSH1 0x0 DUP4 ADD MLOAD PUSH2 0xA9D PUSH1 0x0 DUP7 ADD DUP3 PUSH2 0xA1D JUMP JUMPDEST POP PUSH1 0x20 DUP4 ADD MLOAD DUP5 DUP3 SUB PUSH1 0x20 DUP7 ADD MSTORE PUSH2 0xAB5 DUP3 DUP3 PUSH2 0xA3D JUMP JUMPDEST SWAP2 POP POP PUSH1 0x40 DUP4 ADD MLOAD PUSH2 0xACA PUSH1 0x40 DUP7 ADD DUP3 PUSH2 0xA76 JUMP JUMPDEST POP DUP1 SWAP2 POP POP SWAP3 SWAP2 POP POP JUMP JUMPDEST PUSH1 0x0 PUSH1 0x20 DUP3 ADD SWAP1 POP DUP2 DUP2 SUB PUSH1 0x0 DUP4 ADD MSTORE PUSH2 0xAEF DUP2 DUP5 PUSH2 0xA85 JUMP JUMPDEST SWAP1 POP SWAP3 SWAP2 POP POP JUMP JUMPDEST PUSH32 0x656D707479207469746C65000000000000000000000000000000000000000000 PUSH1 0x0 DUP3 ADD MSTORE POP JUMP JUMPDEST PUSH1 0x0 PUSH2 0xB2D PUSH1 0xB DUP4 PUSH2 0x87E JUMP JUMPDEST SWAP2 POP PUSH2 0xB38 DUP3 PUSH2 0xAF7 JUMP JUMPDEST PUSH1 0x20 DUP3 ADD SWAP1 POP SWAP2 SWAP1 POP JUMP JUMPDEST PUSH1 0x0 PUSH1 0x20 DUP3 ADD SWAP1 POP DUP2 DUP2 SUB PUSH1 0x0 DUP4 ADD MSTORE PUSH2 0xB5C DUP2 PUSH2 0xB20 JUMP JUMPDEST SWAP1 POP SWAP2 SWAP1 POP JUMP JUMPDEST PUSH32 0x6D6178696D756D20616368696576656400000000000000000000000000000000 PUSH1 0x0 DUP3 ADD MSTORE POP JUMP JUMPDEST PUSH1 0x0 PUSH2 0xB99 PUSH1 0x10 DUP4 PUSH2 0x87E JUMP JUMPDEST SWAP2 POP PUSH2 0xBA4 DUP3 PUSH2 0xB63 JUMP JUMPDEST PUSH1 0x20 DUP3 ADD SWAP1 POP SWAP2 SWAP1 POP JUMP JUMPDEST PUSH1 0x0 PUSH1 0x20 DUP3 ADD SWAP1 POP DUP2 DUP2 SUB PUSH1 0x0 DUP4 ADD MSTORE PUSH2 0xBC8 DUP2 PUSH2 0xB8C JUMP JUMPDEST SWAP1 POP SWAP2 SWAP1 POP JUMP JUMPDEST PUSH32 0x4E487B7100000000000000000000000000000000000000000000000000000000 PUSH1 0x0 MSTORE PUSH1 0x41 PUSH1 0x4 MSTORE PUSH1 0x24 PUSH1 0x0 REVERT JUMPDEST PUSH32 0x4E487B7100000000000000000000000000000000000000000000000000000000 PUSH1 0x0 MSTORE PUSH1 0x22 PUSH1 0x4 MSTORE PUSH1 0x24 PUSH1 0x0 REVERT JUMPDEST PUSH1 0x0 PUSH1 0x2 DUP3 DIV SWAP1 POP PUSH1 0x1 DUP3 AND DUP1 PUSH2 0xC45 JUMPI PUSH1 0x7F DUP3 AND SWAP2 POP JUMPDEST PUSH1 0x20 DUP3 LT DUP2 SUB PUSH2 0xC58 JUMPI PUSH2 0xC57 PUSH2 0xBFE JUMP JUMPDEST JUMPDEST POP SWAP2 SWAP1 POP JUMP JUMPDEST PUSH1 0x0 DUP2 SWAP1 POP DUP2 PUSH1 0x0 MSTORE PUSH1 0x20 PUSH1 0x0 KECCAK256 SWAP1 POP SWAP2 SWAP1 POP JUMP JUMPDEST PUSH1 0x0 PUSH1 0x20 PUSH1 0x1F DUP4 ADD DIV SWAP1 POP SWAP2 SWAP1 POP JUMP JUMPDEST PUSH1 0x0 DUP3 DUP3 SHL SWAP1 POP SWAP3 SWAP2 POP POP JUMP JUMPDEST PUSH1 0x0 PUSH1 0x8 DUP4 MUL PUSH2 0xCC0 PUSH32 0xFFFFFFFFFFFFFFFFFFFFFFFFFFFFFFFFFFFFFFFFFFFFFFFFFFFFFFFFFFFFFFFF DUP3 PUSH2 0xC83 JUMP JUMPDEST PUSH2 0xCCA DUP7 DUP4 PUSH2 0xC83 JUMP JUMPDEST SWAP6 POP DUP1 NOT DUP5 AND SWAP4 POP DUP1 DUP7 AND DUP5 OR SWAP3 POP POP POP SWAP4 SWAP3 POP POP POP JUMP JUMPDEST PUSH1 0x0 DUP2 SWAP1 POP SWAP2 SWAP1 POP JUMP JUMPDEST PUSH1 0x0 PUSH2 0xD07 PUSH2 0xD02 PUSH2 0xCFD DUP5 PUSH2 0x7E6 JUMP JUMPDEST PUSH2 0xCE2 JUMP JUMPDEST PUSH2 0x7E6 JUMP JUMPDEST SWAP1 POP SWAP2 SWAP1 POP JUMP JUMPDEST PUSH1 0x0 DUP2 SWAP1 POP SWAP2 SWAP1 POP JUMP JUMPDEST PUSH2 0xD21 DUP4 PUSH2 0xCEC JUMP JUMPDEST PUSH2 0xD35 PUSH2 0xD2D DUP3 PUSH2 0xD0E JUMP JUMPDEST DUP5 DUP5 SLOAD PUSH2 0xC90 JUMP JUMPDEST DUP3 SSTORE POP POP POP POP JUMP JUMPDEST PUSH1 0x0 SWAP1 JUMP JUMPDEST PUSH2 0xD4A PUSH2 0xD3D JUMP JUMPDEST PUSH2 0xD55 DUP2 DUP5 DUP5 PUSH2 0xD18 JUMP JUMPDEST POP POP POP JUMP JUMPDEST JUMPDEST DUP2 DUP2 LT ISZERO PUSH2 0xD79 JUMPI PUSH2 0xD6E PUSH1 0x0 DUP3 PUSH2 0xD42 JUMP JUMPDEST PUSH1 0x1 DUP2 ADD SWAP1 POP PUSH2 0xD5B JUMP JUMPDEST POP POP JUMP JUMPDEST PUSH1 0x1F DUP3 GT ISZERO PUSH2 0xDBE JUMPI PUSH2 0xD8F DUP2 PUSH2 0xC5E JUMP JUMPDEST PUSH2 0xD98 DUP5 PUSH2 0xC73 JUMP JUMPDEST DUP2 ADD PUSH1 0x20 DUP6 LT ISZERO PUSH2 0xDA7 JUMPI DUP2 SWAP1 POP JUMPDEST PUSH2 0xDBB PUSH2 0xDB3 DUP6 PUSH2 0xC73 JUMP JUMPDEST DUP4 ADD DUP3 PUSH2 0xD5A JUMP JUMPDEST POP POP JUMPDEST POP POP POP JUMP JUMPDEST PUSH1 0x0 DUP3 DUP3 SHR SWAP1 POP SWAP3 SWAP2 POP POP JUMP JUMPDEST PUSH1 0x0 PUSH2 0xDE1 PUSH1 0x0 NOT DUP5 PUSH1 0x8 MUL PUSH2 0xDC3 JUMP JUMPDEST NOT DUP1 DUP4 AND SWAP2 POP POP SWAP3 SWAP2 POP POP JUMP JUMPDEST PUSH1 0x0 PUSH2 0xDFA DUP4 DUP4 PUSH2 0xDD0 JUMP JUMPDEST SWAP2 POP DUP3 PUSH1 0x2 MUL DUP3 OR SWAP1 POP SWAP3 SWAP2 POP POP JUMP JUMPDEST PUSH2 0xE13 DUP3 PUSH2 0x873 JUMP JUMPDEST PUSH8 0xFFFFFFFFFFFFFFFF DUP2 GT ISZERO PUSH2 0xE2C JUMPI PUSH2 0xE2B PUSH2 0xBCF JUMP JUMPDEST JUMPDEST PUSH2 0xE36 DUP3 SLOAD PUSH2 0xC2D JUMP JUMPDEST PUSH2 0xE41 DUP3 DUP3 DUP6 PUSH2 0xD7D JUMP JUMPDEST PUSH1 0x0 PUSH1 0x20 SWAP1 POP PUSH1 0x1F DUP4 GT PUSH1 0x1 DUP2 EQ PUSH2 0xE74 JUMPI PUSH1 0x0 DUP5 ISZERO PUSH2 0xE62 JUMPI DUP3 DUP8 ADD MLOAD SWAP1 POP JUMPDEST PUSH2 0xE6C DUP6 DUP3 PUSH2 0xDEE JUMP JUMPDEST DUP7 SSTORE POP PUSH2 0xED4 JUMP JUMPDEST PUSH1 0x1F NOT DUP5 AND PUSH2 0xE82 DUP7 PUSH2 0xC5E JUMP JUMPDEST PUSH1 0x0 JUMPDEST DUP3 DUP2 LT ISZERO PUSH2 0xEAA JUMPI DUP5 DUP10 ADD MLOAD DUP3 SSTORE PUSH1 0x1 DUP3 ADD SWAP2 POP PUSH1 0x20 DUP6 ADD SWAP5 POP PUSH1 0x20 DUP2 ADD SWAP1 POP PUSH2 0xE85 JUMP JUMPDEST DUP7 DUP4 LT ISZERO PUSH2 0xEC7 JUMPI DUP5 DUP10 ADD MLOAD PUSH2 0xEC3 PUSH1 0x1F DUP10 AND DUP3 PUSH2 0xDD0 JUMP JUMPDEST DUP4 SSTORE POP JUMPDEST PUSH1 0x1 PUSH1 0x2 DUP9 MUL ADD DUP9 SSTORE POP POP POP JUMPDEST POP POP POP POP POP POP JUMP JUMPDEST DUP3 DUP2 DUP4 CALLDATACOPY PUSH1 0x0 DUP4 DUP4 ADD MSTORE POP POP POP JUMP JUMPDEST PUSH1 0x0 PUSH2 0xEF7 DUP4 DUP6 PUSH2 0x87E JUMP JUMPDEST SWAP4 POP PUSH2 0xF04 DUP4 DUP6 DUP5 PUSH2 0xEDC JUMP JUMPDEST PUSH2 0xF0D DUP4 PUSH2 0x8B9 JUMP JUMPDEST DUP5 ADD SWAP1 POP SWAP4 SWAP3 POP POP POP JUMP JUMPDEST PUSH1 0x0 PUSH1 0x20 DUP3 ADD SWAP1 POP DUP2 DUP2 SUB PUSH1 0x0 DUP4 ADD MSTORE PUSH2 0xF33 DUP2 DUP5 DUP7 PUSH2 0xEEB JUMP JUMPDEST SWAP1 POP SWAP4 SWAP3 POP POP POP JUMP JUMPDEST PUSH32 0x4E487B7100000000000000000000000000000000000000000000000000000000 PUSH1 0x0 MSTORE PUSH1 0x11 PUSH1 0x4 MSTORE PUSH1 0x24 PUSH1 0x0 REVERT JUMPDEST PUSH1 0x0 PUSH2 0xF76 DUP3 PUSH2 0x7E6 JUMP JUMPDEST SWAP2 POP PUSH32 0xFFFFFFFFFFFFFFFFFFFFFFFFFFFFFFFFFFFFFFFFFFFFFFFFFFFFFFFFFFFFFFFF DUP3 SUB PUSH2 0xFA8 JUMPI PUSH2 0xFA7 PUSH2 0xF3C JUMP JUMPDEST JUMPDEST PUSH1 0x1 DUP3 ADD SWAP1 POP SWAP2 SWAP1 POP JUMP JUMPDEST PUSH32 0x696420646F6573206E6F74206578697374000000000000000000000000000000 PUSH1 0x0 DUP3 ADD MSTORE POP JUMP JUMPDEST PUSH1 0x0 PUSH2 0xFE9 PUSH1 0x11 DUP4 PUSH2 0x87E JUMP JUMPDEST SWAP2 POP PUSH2 0xFF4 DUP3 PUSH2 0xFB3 JUMP JUMPDEST PUSH1 0x20 DUP3 ADD SWAP1 POP SWAP2 SWAP1 POP JUMP JUMPDEST PUSH1 0x0 PUSH1 0x20 DUP3 ADD SWAP1 POP DUP2 DUP2 SUB PUSH1 0x0 DUP4 ADD MSTORE PUSH2 0x1018 DUP2 PUSH2 0xFDC JUMP JUMPDEST SWAP1 POP SWAP2 SWAP1 POP JUMP JUMPDEST PUSH32 0x4E487B7100000000000000000000000000000000000000000000000000000000 PUSH1 0x0 MSTORE PUSH1 0x32 PUSH1 0x4 MSTORE PUSH1 0x24 PUSH1 0x0 REVERT JUMPDEST PUSH1 0x0 PUSH2 0x1059 DUP3 PUSH2 0x7E6 JUMP JUMPDEST SWAP2 POP PUSH1 0x0 DUP3 SUB PUSH2 0x106C JUMPI PUSH2 0x106B PUSH2 0xF3C JUMP JUMPDEST JUMPDEST PUSH1 0x1 DUP3 SUB SWAP1 POP SWAP2 SWAP1 POP JUMP INVALID LOG2 PUSH5 0x6970667358 0x22 SLT KECCAK256 DUP10 0xF9 MUL 0xE CODESIZE PUSH26 0xE98431272936E294B0D8B40FC5A7E6AA4AF8B256E8ACCA48AC2 PUSH5 0x736F6C6343 STOP ADDMOD SGT STOP CALLER "
				},
				"gasEstimates": {
					"creation": {
						"codeDepositCost": "853800",
						"executionCost": "890",
						"totalCost": "854690"
					},
					"external": {
						"createTask(string)": "infinite",
						"readNextToDo()": "infinite",
						"taskCounter()": "2429",
						"tasks(uint256)": "infinite",
						"updateTaskStatus(uint256,uint8)": "29200"
					}
				},
				"methodIdentifiers": {
					"createTask(string)": "111002aa",
					"readNextToDo()": "e9d8be6d",
					"taskCounter()": "58671730",
					"tasks(uint256)": "8d977672",
					"updateTaskStatus(uint256,uint8)": "ab9b6811"
				}
			},
			"storageLayout": {
				"storage": [
					{
						"astId": 23,
						"contract": "TaskManager.sol:TaskManager",
						"label": "tasks",
						"offset": 0,
						"slot": "0",
						"type": "t_array(t_struct(Task)13_storage)dyn_storage"
					},
					{
						"astId": 25,
						"contract": "TaskManager.sol:TaskManager",
						"label": "taskCounter",
						"offset": 0,
						"slot": "1",
						"type": "t_uint256"
					}
				],
				"types": {
					"t_array(t_struct(Task)13_storage)dyn_storage": {
						"base": "t_struct(Task)13_storage",
						"encoding": "dynamic_array",
						"label": "struct TaskManager.Task[]",
						"numberOfBytes": "32"
					},
					"t_enum(TaskStatus)5": {
						"encoding": "inplace",
						"label": "enum TaskManager.TaskStatus",
						"numberOfBytes": "1"
					},
					"t_string_storage": {
						"encoding": "bytes",
						"label": "string",
						"numberOfBytes": "32"
					},
					"t_struct(Task)13_storage": {
						"encoding": "inplace",
						"label": "struct TaskManager.Task",
						"members": [
							{
								"astId": 7,
								"contract": "TaskManager.sol:TaskManager",
								"label": "id",
								"offset": 0,
								"slot": "0",
								"type": "t_uint256"
							},
							{
								"astId": 9,
								"contract": "TaskManager.sol:TaskManager",
								"label": "title",
								"offset": 0,
								"slot": "1",
								"type": "t_string_storage"
							},
							{
								"astId": 12,
								"contract": "TaskManager.sol:TaskManager",
								"label": "status",
								"offset": 0,
								"slot": "2",
								"type": "t_enum(TaskStatus)5"
							}
						],
						"numberOfBytes": "96"
					},
					"t_uint256": {
						"encoding": "inplace",
						"label": "uint256",
						"numberOfBytes": "32"
					}
				}
			},
			"userdoc": {
				"kind": "user",
				"methods": {},
				"version": 1
			}
		}
	}
}